:100000000C942A000C9447000C9447000C9494091B
:100010000C9447000C9447000C94150A0C9447006C
:100020000C9447000C9447000C9447000C94470034
:100030000C9447000C9471090C9447000C944700F1
:100040000C9447000C9447000C9447000C94470014
:100050000C94470011241FBECFE5D4E0DEBFCDBF16
:1000600011E0A0E6B0E0E6E2FEE202C005900D92EB
:10007000AA35B107D9F721E0AAE5B1E001C01D9288
:10008000A23FB207E1F70E943C0A0C9411170C94AE
:100090000000CF93DF9300D000D0CDB7DEB74C8304
:1000A0005B836A8389830E948B0589810E94A305F3
:1000B0006A81862F0E94A3055B81852F0E94A3057C
:1000C0004C81842F0E94A3050F900F900F900F90EA
:1000D000DF91CF910C9497051F93CF93DF931F92DD
:1000E000CDB7DEB7182F0E948B05812F0E94A30584
:1000F00080E00E94A3050E9497050E948B05812F36
:1001000081600E94A30581E00E94C505182F80E050
:100110000E94C50589830E949705898190E0912BF3
:100120000F90DF91CF911F910895CF93DF931F928E
:10013000CDB7DEB789830E947F05898180935D01F9
:1001400010925C0110925B0110925A010F90DF91A6
:10015000CF91089590935B0180935A010895843064
:1001600068F540915A0150915B01823051F0833023
:1001700059F0813019F04368516408C043685165F3
:1001800005C04368516602C043685167506861E02A
:1001900080915D010E9449008FE79EE30197F1F78E
:1001A00000C0000080915D010E946C0000905C0125
:1001B00002C0969587950A94E2F7089580E090E052
:1001C000089540915A0150915B014368516861E084
:1001D00080915D010E9449008FE79EE30197F1F74E
:1001E00000C0000080915D010E946C0020915C01C4
:1001F000022E02C0969587950A94E2F7222329F0F1
:10020000811528E0920708F0906F089540915A01F7
:1002100050915B014368516B61E080915D010E94E8
:1002200049008FE79EE30197F1F700C0000080913D
:100230005D010E946C0020915C01022E02C0969527
:1002400087950A94E2F7222329F0811528E0920786
:1002500008F0906F0895CF93DF93C0915A01D09129
:100260005B01813051F030F0823051F0833059F031
:10027000C4680BC0C468D06408C0C468D06505C039
:10028000C468D06602C0C468D067AB0100905C014E
:1002900002C0440F551F0A94E2F763E080915D01AC
:1002A0000E944900AE0161E080915D01DF91CF9134
:1002B0000C9449008FE79EE30197F1F700C000001E
:1002C00080915D010E946C0020915C01022E02C0B1
:1002D000969587950A94E2F7222329F0811528E064
:1002E000920708F0906F089520915E01223078F413
:1002F00090916001E92FF0E0EF59FE4F80832F5F6E
:1003000020935E0181E0890F8170809360010895E0
:10031000EF92FF920F931F93CF93DF9300D0CDB74F
:10032000DEB72FEF260F30E0A9014D595E4F7A015D
:10033000FA014081F901E959FE4F908190936601DD
:100340008901000F111FD801A459BE4F2D913C9176
:1003500030936B0120936A018823E1F0253F51E03F
:100360003507C8F52F5F3F4F30936B0120936A012B
:100370002630310580F140FD03C0416091E001C0AD
:1003800090E0253F314041F541FD26C04B7F426062
:1003900092E022C040FF0AC041FD08C042FF03C0F6
:1003A0004B7F95E004C010926601446090E042FFEC
:1003B00008C080916601853620F0109266014B7F5F
:1003C00093E040FF02C041FD94E010926B01109257
:1003D0006A014C7F01C090E042FF07C08091660136
:1003E000853618F48F5F8093660180916601808363
:1003F000992351F0862F4A8399830E947401998131
:10040000892F0E9474014A81F801E459FE4F8091BE
:100410006A0190916B0191838083F70140830F9073
:100420000F90DF91CF911F910F91FF90EF90089562
:1004300020915E01222379F090915F01E92FF0E095
:10044000EF59FE4F8081215020935E019F5F917094
:1004500090935F01089580E0089510926D011092CD
:100460006C01109263011092670110926F0110925B
:100470006E01109264011092680110927101109245
:100480007001109265011092690110926101109241
:1004900062011092600110925F0110925E01D79884
:1004A000DF9AA798AF9AA698AE9A089589B38095D7
:1004B00061E0881F8827881F0E94880183B3809588
:1004C00062E0881F8827881F0E94880183B386FB0B
:1004D000882780F963E091E089270C9488014F9286
:1004E0005F926F927F928F929F92AF92BF92CF92C4
:1004F000DF92EF92FF920F931F93CF93DF93CDB7CD
:10050000DEB72A970FB6F894DEBF0FBECDBF5C01F1
:100510006A017B01822ECE010B96FE013196D50138
:100520001D921192E817F907D9F720E030E0A901F0
:10053000C701B6010E945012882309F47CC080E0F4
:1005400090E061E070E0912C2AE08815990544F470
:10055000AB01249FB001259F700D11240196F5CFAA
:1005600026013701E89477F880E090E00E94ED12D0
:100570009B01AC01C301B2010E94A3130E94BC12F3
:10058000FE01319600E010E02AE030E0CB01B90135
:100590000E947C11805D8193161617062CF40F5F64
:1005A0001F4F0A30110591F720E030E040E85FE38B
:1005B000C301B2010E94501287FF0AC00F5F1F4F94
:1005C000E1E0F0E0EC0FFD1FE00FF11F80E380831E
:1005D00020E030E0A901C701B6010E94501287FF58
:1005E0000AC00F5F1F4FE1E0F0E0EC0FFD1FE00FCE
:1005F000F11F8DE2808340916000F50180E090E082
:100600009801281939092F5F3F4F8217930711F47A
:1006100040830BC0A1E0B0E0AC0FBD1FA00FB11F25
:100620005C9150830150110920F1019631968B3075
:10063000910559F71EC0882051F02091600080E09C
:1006400090E0912CEFEF8E1A9E0A30E30AC080E30F
:10065000F50180830EC0F5018130910531F42183CD
:10066000019688169906BCF704C0E80FF91F30837D
:10067000F7CF2A960FB6F894DEBF0FBECDBFDF913D
:10068000CF911F910F91FF90EF90DF90CF90BF908F
:10069000AF909F908F907F906F905F904F90089554
:1006A0000F93009360000E946F028EE280936000BF
:1006B0000F9108954F925F926F927F92AF92BF9287
:1006C000CF92DF92EF92FF920F931F93CF93DF931E
:1006D000CDB7DEB729013A01621B730B840B950B72
:1006E00029893A894B895C892A193B094C095D099A
:1006F000298B3A8B4B8B5C8B9B01AC0169897A8986
:100700008B899C890E944C11E418F5080609170989
:10071000A80197010E9490112A0D3B1D4C1D5D1DE3
:10072000CA01B901DF91CF911F910F91FF90EF9016
:10073000DF90CF90BF90AF907F906F905F904F9081
:1007400008954F925F926F927F92AF92BF92CF9235
:10075000DF92EF92FF920F931F93CF93DF93CDB76A
:10076000DEB728970FB6F894DEBF0FBECDBF2901C4
:100770003A01ED82FE820F8318870E94EB11698394
:100780007A838B839C83A6019501698D7A8D8B8DED
:100790009C8D0E94EB119B01AC0169817A818B8158
:1007A0009C810E94A31369837A838B839C83A3011A
:1007B0009201C801B7010E94EB119B01AC01698154
:1007C0007A818B819C810E945412A60195010E941E
:1007D000EC1128960FB6F894DEBF0FBECDBFDF91A7
:1007E000CF911F910F91FF90EF90DF90CF90BF902E
:1007F000AF907F906F905F904F900895EF92FF922F
:100800000F931F93621773078407950744F0E6164A
:10081000F706080719072CF4C801B70102C0CA017E
:10082000B9011F910F91FF90EF9008958F929F92C1
:10083000AF92BF92CF92DF92EF92FF920F931F93EE
:10084000CF93DF936B01D82FC92F49015A010E9422
:10085000501287FD0DC09701A801B6018D2F9C2F66
:100860000E949F1318163CF46701D02FC12F03C0BC
:100870006401DA2DCB2DB6018D2F9C2FDF91CF9106
:100880001F910F91FF90EF90DF90CF90BF90AF90AE
:100890009F908F900895982F92959F708F702AE067
:1008A000929F800D112408956AE00E945C1120E15E
:1008B000829F900D1124892F08951F93CF93DF936A
:1008C0001F92CDB7DEB7182F0E948B0580ED0E94D6
:1008D000A305812F0E94A3050E948B0581ED0E9434
:1008E000A30580E00E94C50589830E949705898140
:1008F0000F90DF91CF911F9108951F93CF93DF93B6
:100900001F92CDB7DEB7182F69830E948B0580ED4B
:100910000E94A305812F0E94A3056981862F0E9452
:10092000A3050F90DF91CF911F910C949705CF9362
:10093000C82FC3706111C0614111C0680E948B054E
:1009400080ED0E94A30587E00E94A3058C2F0E94E2
:10095000A305CF910C949705EF92FF920F931F93ED
:10096000CF93DF93EC017B018A010E948B0580ED20
:100970000E94A30580E00E94A3050E948B0581EDE3
:100980000E94A30581E00E94C5050E944B04F80166
:10099000808381E00E94C5050E944B04F70180839B
:1009A00080E00E94C5050E944B048883DF91CF91AF
:1009B0001F910F91FF90EF900C9497051F93CF9389
:1009C000DF9300D0CDB7DEB7182F49836A830E942A
:1009D0008B0580ED0E94A30580E00E94A30549815C
:1009E000842F0E9454040E94A3056A81862F0E94CE
:1009F00054040E94A305812F0E9454040E94A30561
:100A00000F900F90DF91CF911F910C949705EF926B
:100A1000FF920F931F93CF93DF93EC017B018A0129
:100A20000E948B0580ED0E94A30584E00E94A3052F
:100A30000E948B0581ED0E94A30581E00E94C505FF
:100A40000E944B04888381E00E94C5050E944B04EC
:100A5000F701808380E00E94C5050E944B04F801E5
:100A60008083DF91CF911F910F91FF90EF900C94B5
:100A700097051F93CF93DF9300D0CDB7DEB7182F24
:100A80004A8369830E948B0580ED0E94A30584E060
:100A90000E94A305812F0E9454040E94A30569812E
:100AA000862F0E9454040E94A3054A81842F0E942D
:100AB00054040E94A3050F900F90DF91CF911F91D6
:100AC0000C94970500000000000000000000019752
:100AD0000097C1F70895939A81E090E00C94620525
:100AE0008C9A81E090E00C9462058C9881E090E013
:100AF0000C946205939881E090E00C9462059498C0
:100B00009398939894988B9A8C980E946B050E9466
:100B100070050C9475050E946B050E9475050E9476
:100B20006B050E9470050E947A050C9475050E9461
:100B30007A050E9470050E946B050E9470050E9454
:100B40006B050C947505CF93DF93D82FC8E00E94F6
:100B50007A05D7FF03C00E94750502C00E94700588
:100B60000E946B05DD0FC15091F70E947A050E942B
:100B700075050E946B05C0B30E947A05C295C170CD
:100B800081E08C27DF91CF9108951F93CF93DF935E
:100B9000182F0E947A050E947505D8E0C0E0CC0F9E
:100BA0000E946B058499CF5F0E947A05D150B9F7F6
:100BB00011110E9470050E946B050E947A058C2F0E
:100BC000DF91CF911F9108951F93CF93DF931F92D1
:100BD000CDB7DEB7182F69830E948B05812F0E9445
:100BE000A3056981862F0E94A3050E948B05812F92
:100BF00081600E94A30580E00E94C50589830E9450
:100C0000970589810F90DF91CF911F910895CF9320
:100C1000DF9300D01F92CDB7DEB74B836A83898301
:100C20000E948B0589810E94A3056A81862F0E94FC
:100C3000A3054B81842F0E94A3050F900F900F9066
:100C4000DF91CF910C949705982F907F84FF02C07D
:100C5000DB9A01C0DB9885FF02C0DC9A01C0DC98FA
:100C600086FF02C0DD9A01C0DD9897FF02C0DE9AC0
:100C700001C0DE98DA9A95E09A95F1F70000DA98CB
:100C80008295982F907F84FF02C0DB9A01C0DB9889
:100C900085FF02C0DC9A01C0DC9886FF02C0DD9AA5
:100CA00001C0DD9897FF02C0DE9A01C0DE98DA9A93
:100CB00085E08A95F1F70000DA980895D398D498E2
:100CC000D598D698DB9ADC9ADD9ADE9AD99AD8988C
:100CD000DA9A95E09A95F1F70000CB9B02C080610B
:100CE00001C08F7ECC9B02C0806201C08F7DCD9BF6
:100CF00002C0806401C08F7BCE9B02C0806801C0AF
:100D00008F77DA98DA9A95E09A95F1F7000099B31F
:100D100099B399B399B3DA9887FDDACFD998D39A72
:100D2000D49AD59AD69A08959AE69A95F1F700C082
:100D3000D898982F907F84FF02C0DB9A01C0DB987F
:100D400085FF02C0DC9A01C0DC9886FF02C0DD9AF4
:100D500001C0DD9897FF02C0DE9A01C0DE98DA9AE2
:100D600085E08A95F1F70000DA980895CF93DF9334
:100D70001F92CDB7DEB789830E945E06D89889811D
:100D80000F90DF91CF910C942406CF93DF931F92A5
:100D9000CDB7DEB789830E945E06D89A89810F900D
:100DA000DF91CF910C942406D39AD49AD59AD69AEF
:100DB000D09AD19AD29A2FEF89EF90E021508040BB
:100DC0009040E1F700C0000080E30E9494068FE1AC
:100DD0009EE40197F1F700C0000080E30E949406B2
:100DE0008FE99FE00197F1F700C0000080E30E94C7
:100DF000940688E20E94940688E20E94B6068CE07F
:100E00000E94B60681E00E94B6068FE99FE0019736
:100E1000F1F700C0000086E00C94B606CF93DF9394
:100E2000EC018991882319F00E94C506FACFDF9161
:100E3000CF910895CF93DF93EC018881882331F01F
:100E4000FE01849121960E94C506F7CFDF91CF91D4
:100E500008950F931F93CF93DF93EC01677028E001
:100E6000629FC001112480640E94B6068E01085F53
:100E70001F4FFE01849121960E94C506C017D1071D
:100E8000C1F7DF91CF911F910F910895853610F42E
:100E900080937E0180917E010895F89447E350E0AD
:100EA00060E070E087EA91E00E941316789408955C
:100EB0008AE08093A7012FE530E03093AD012093C5
:100EC000AC0180EE91E09093AF018093AE018EE192
:100ED00090E09093B1018093B00142E350E05093D1
:100EE000B3014093B2013093C3012093C20141E0AA
:100EF00050E05093B5014093B40140EC53E050935F
:100F0000C5014093C4014AE050E05093B7014093BB
:100F1000B6019093C7018093C6011092B901109257
:100F2000B80147E150E05093C9014093C8011092C5
:100F3000BB011092BA014BE350E05093CB014093B8
:100F4000CA011092BD011092BC015093CD01409393
:100F5000CC0148E250E05093BF014093BE01309372
:100F6000CF012093CE011092C1011092C00123E65F
:100F700030E03093D1012093D00121E430E0309370
:100F8000A9012093A8019093AB018093AA0180E06E
:100F900090E0A0E2B1E48093D2019093D301A093BA
:100FA000D401B093D50180E090E0A0E0BFE380934E
:100FB000D6019093D701A093D801B093D90180E0D6
:100FC00090E0A0E0B0E48093DA019093DB01A0937D
:100FD000DC01B093DD010C944D070E941802809350
:100FE0009601882321F00E9418028093E001089561
:100FF000B99AC1988E9A96988D9A9598A09AA89821
:10100000B89AC09808958F929F92AF92BF92CF9254
:10101000DF92EF92FF92CF93DF934B015C01EA01E5
:10102000622F70E080E090E00E94ED1220E030E05E
:1010300040E551E40E94EC112FE23DED44E95FE30D
:101040000E94A3136B017C016091AC017091AD0112
:1010500080E090E00E94ED12A50194010E94EB1146
:101060009B01AC01C701B6010E94A3136B017C0177
:10107000BE0180E090E00E94ED1220E030E040E709
:1010800052E40E94541228E431EE4AE75FE30E94E2
:10109000A3139B01AC01C701B6010E94541220E0CA
:1010A00030E84BE355E40E94541220E030E048EC75
:1010B00052E40E94A3130E94C11265367105810596
:1010C000910520F064E670E080E090E0862FDF91EB
:1010D000CF91FF90EF90DF90CF90BF90AF909F9017
:1010E0008F9008951FBC84E08EBD1DBC1CBC81E1A7
:1010F0009AE79BBD8ABD19BC18BC17BC16BC0895E5
:1011000084E085BD12BC14BC8CE783BD08954F926A
:101110005F926F927F92AF92BF92CF92DF92EF92E7
:10112000FF920F931F93CF93DF93CDB7DEB728972E
:101130000FB6F894DEBF0FBECDBF0E94EB116983DE
:101140007A838B839C839B01AC01C801B7010E9409
:10115000A313E12CF12C08EC12E420E030E048EC81
:1011600052EC0E9416046D837E838F83988720E063
:1011700030E0A901C601B5010E949F131816ACF416
:10118000A601950169817A818B819C810E9454120C
:1011900020E030E0A9010E94EC1120E030E0A9013C
:1011A0000E9416042B013C0103C0412C512C32013A
:1011B0002091790130917A0140917B0150917C011D
:1011C00069817A818B819C810E94EB119B01AC012A
:1011D000698D7A8D8B8D9C8D0E94A313E12CF12C4F
:1011E00008EC12E420E030E048EC52EC0E941604D7
:1011F0006B017C0189819A81AB81BC8180937901EB
:1012000090937A01A0937B01B0937C01A30192019A
:101210006D817E818F8198850E94EC11A7019601D6
:101220000E94EC110E94BC12882777FD8095982FB0
:1012300014E6E12EF12C00E010E020E030E0A901FE
:101240000E94FE03862F28960FB6F894DEBF0FBECD
:10125000CDBFDF91CF911F910F91FF90EF90DF9065
:10126000CF90BF90AF907F906F905F904F90089518
:1012700090BD89B988ED8AB986E880BD08950F933D
:101280001F93CF93DF93EC0109900020E9F721979A
:10129000C81BD90B8E011127A801BC0187E991E079
:1012A0000E940614CE5FC0937D01F801E956FE4FFF
:1012B0008DE080838AE0818381E08CB9DF91CF91DA
:1012C0001F910F9108952091E10127FD09C090938E
:1012D00081018093800170E07093DF016093DE01F3
:1012E00008951F920F920FB60F9211248F93EF93D0
:1012F000FF93E091780180917D01E81758F4F0E0C8
:10130000E956FE4F80818CB9809178018F5F809380
:10131000780102C010927801FF91EF918F910F90A8
:101320000FBE0F901F9018951F920F920FB60F923D
:1013300011242F933F934F935F936F937F938F93DA
:101340009F93AF93BF93EF93FF9314BCA8958091A5
:1013500077018F5F809377018A30A1F41092770133
:1013600090917E0180917601891710F0C19801C09B
:10137000C19A809176018F5F80937601843611F453
:10138000109276010E9456028091DE019091DF0159
:10139000892BD1F180917401909175010196909300
:1013A0007501809374012091800130918101821731
:1013B000930740F48091720190917301892B11F48D
:1013C000C09A22C0C09880917201909173010196D9
:1013D000909373018093720120918001309181017B
:1013E0008217930788F01092730110927201109285
:1013F0007501109274018091DE019091DF010197D7
:101400009093DF018093DE01FF91EF91BF91AF9147
:101410009F918F917F916F915F914F913F912F910C
:101420000F900FBE0F901F9018951F920F920FB63E
:101430000F9211242F938F939F931DBC1CBC8091FE
:10144000820190918301009749F020917F01213022
:1014500029F4019790938301809382018091E101A7
:10146000806281608093E1019F918F912F910F9015
:101470000FBE0F901F901895CF93DF93CDB7DEB7B7
:1014800065970FB6F894DEBF0FBECDBF80E90E940E
:10149000950080E096E00E94AA0083E390E00E941D
:1014A00038090E94F8070E942D020E94D40647E3E3
:1014B00050E060E070E087EA91E00E9403168091BE
:1014C000A7018F3F11F09F991DC080E80E94B606CA
:1014D00089E790E00E940E079F9BFECF0E9458076D
:1014E0002FEF34E38CE0215030408040E1F700C022
:1014F000000081E00E94B606AFE9BFE01197F1F766
:1015000000C000000E9472080E94800840E061E074
:1015100080E00E949704AE014D5F5F4FBE016E5F99
:101520007F4FCE0101960E94AC0480E989BFA89547
:101530002EE088E190E00FB6F894A89581BD0FBE2B
:1015400021BD789463E08AEF90E00E9463091A86D7
:101550001B86B8ECBC87E1E4ED87812C212C00EFE1
:10156000302E81E4982EFFEFF98B1D8221E02C8331
:101570003FEF388B8FEF8E871F861E821F82188663
:1015800019860E94ED078091E10181FB772470F8B4
:1015900082FB992790F9790E83FB992790F9790EB0
:1015A00084FF05C08F7E8093E1010E944D078091EA
:1015B00096018230E1F58091E0018330C1F59C8194
:1015C000933069F0943009F1923031F5969A809118
:1015D000E10182608093E10110927F0114C0969A2C
:1015E0008091E10188608093E1014091AE015091CA
:1015F000AF012091B001682D722D832D992D0E948D
:10160000030880937E011D820DC08091E1018460FA
:101610008093E101969A06C08091E101897F877FDE
:101620008093E1018091E10180618093E1018091EB
:101630009601823091F48091E001853071F48091BF
:10164000E101897F877F8093E10110927E01969866
:101650008091E10180618093E1018091E10180FF4F
:1016600091C18E7F8093E10180E00E94AF00BC01B8
:1016700080E090E00E94ED122DEC3CEC4CE45BE34A
:101680000E94A313862E272E382E992E81E00E94C9
:10169000AF00BC0180E090E00E94ED122DEC3CEC2C
:1016A0004CE45BE30E94A3136A877B878C879D874A
:1016B0008091E10186FD0AC0AE014D5F5F4FBE0122
:1016C0006E5F7F4FCE0101960E94AC048091E101D4
:1016D00081FFBAC00091A8011091A901AD81A1308C
:1016E00021F158F0A23099F5BA85BE83EB85EF83DE
:1016F000FC85F8872D8529872AC0B801882777FDC2
:101700008095982F0E94EF129B01AC01682D722DDD
:10171000832D992D0E949F138E822F823886998661
:1017200087FD15C032E03D8312C0282D322D432D98
:10173000592D6A857B858C859D850E949F138E829D
:101740002F823886998687FD02C082E08D83A09023
:10175000D601B090D701C090D801D090D901809126
:10176000D2019091D301A091D401B091D5018A8B7F
:101770009B8BAC8BBD8BB801882777FD8095982F0C
:101780000E94EF122091DD012F932091DC012F9315
:101790002091DB012F932091DA012F93EA88FB88B7
:1017A0000C891D892E813F81488559850E948708B3
:1017B00080937E010F900F900F900F9080917F018A
:1017C000811117C06091A8017091A901882777FD48
:1017D0008095982F0E94EF129B01AC016A857B8552
:1017E0008C859D850E949F1387FD03C081E08093B7
:1017F0007F0180917F01813039F580918201909144
:101800008301892B09F510927E0180917E01209140
:10181000AA013091AB014CE3429FC001439F900D60
:101820001124909383018093820181E00E94B60687
:10183000AFE9BFE01197F1F700C000008091E1012E
:101840008D7F80618093E1011091E10113FF5BC006
:10185000BD81B130E9F018F0B23069F154C0609147
:10186000AC017091AD0180E090E00E94ED129B010F
:10187000AC01E1E0ED83682D722D832D992D0E943E
:101880009F1387FD1D828E822F82388699863BC0EA
:10189000282D322D432D592D6A857B858C859D857C
:1018A0000E949F138E822F823886998687FD2BC0D7
:1018B00092E09D8328C06091AC017091AD0180E001
:1018C00090E00E94ED129B01AC016A857B858C85BE
:1018D0009D850E949F1387FD0EC0177F1093E10125
:1018E00010927E01FA85FE832B852F833C853887F5
:1018F0008D85898708C0AA85AE83BB85BF83EC85AB
:10190000E887FD85F9878091E10185FF3BC08F7DE8
:101910008093E101E2EEF1E0119221E0E23FF20773
:10192000D9F721E0482D522D632D792D84E891E0DF
:101930000E946F0221E04A855B856C857D858AE87F
:1019400091E00E946F0280917E011F928F938AE83E
:1019500091E09F938F9384E891E09F938F93AAE8FF
:10196000B0E0BF93AF93A2EEB1E0BF93AF930E94FC
:101970000F1482EE91E00E943F090FB6F894DEBF8B
:101980000FBECDBF8091E10186FD2BC0711029C033
:1019900080919601833029F58091E001823009F52C
:1019A0003C813F5F3C83373089F0323089F42091AD
:1019B000AA013091AB014CE3429FC001439F900DBF
:1019C0001124909383018093820102C081E08C8373
:1019D00081E00E94B606AFE9BFE01197F1F700C0C1
:1019E00000008091E10186FD2BC0711029C080911B
:1019F0009601813029F58091E001823009F5BC81A2
:101A0000B150BC83BB2389F0B23089F42091AA0184
:101A10003091AB014CE3429FC001439F900D1124D4
:101A2000909383018093820102C0E6E0EC8381E021
:101A30000E94B6068FE99FE00197F1F700C0000011
:101A40009C81933009F4E0C130F4913071F0923010
:101A500009F4CEC096CDAC81A53009F40AC308F4D0
:101A6000B0C2A63009F4F0C38CCD2B81822F992708
:101A700087FD90959F932F932A81822F992787FD29
:101A800090959F932F932981822F992787FD909579
:101A90009F932F9383E990E09F938F93A2EEB1E001
:101AA000BF93AF930E940F1480E80E94B60682EEA7
:101AB00091E00E940E070FB6F894DEBF0FBECDBFB7
:101AC00080919601823071F58091E001823051F56C
:101AD00039893F5F398B8091E101333094F43F3F86
:101AE00081F080648093E101832F880F830F8F70D2
:101AF000805C80680E94B60689EA90E00E940E072A
:101B000011C08F7B8093E10180EC0E94B60680EBD0
:101B100090E00E940E074B816A8189810E94DE0459
:101B20008FEF898B8091E10186FF2BCD809196010B
:101B3000833079F58091E001833009F022CDA989C5
:101B40008A2F992787FD9095E1E0F0E0EC0FFD1FCB
:101B5000E80FF91F40814F5F40839C012D5F3F4F8D
:101B6000552747FD5095DC01AA0FBB1FA354BE4F5C
:101B70001B968D919C911C97841795070CF001CDB5
:101B8000D901AA0FBB1FA955BE4F1B968C9180830C
:101B9000F8CC813009F0F5CC8091E001833009F078
:101BA000F0CCE989AE2FBB27A7FDB09541E050E00E
:101BB0004C0F5D1F4A0F5B1FFA01208121502083CB
:101BC000332727FD3095CD01880F991F83559E4FF0
:101BD000FC0183859485281739070CF0D2CCAA0F15
:101BE000BB1FA354BE4F1B968C91DA018C93C9CCBA
:101BF00080919601823041F59091E001923021F57B
:101C0000711022C0B889BF5FB88B8091E101B230FA
:101C100014F4BF3FA9F48F7B80618093E101209190
:101C2000AA013091AB014CE3429FC001439F900D4C
:101C300011249093830180938201EFEFE88B48C0D9
:101C400080648093E10144C0F889FF3F09F440C0FB
:101C500071103EC08330E1F48091E0018330C1F522
:101C6000AF2FBB27A7FDB095FD01EE0FFF1FE95574
:101C7000FE4F81819281AA0FBB1FAD53BE4F1B96B1
:101C80002D913C911C978217930714F501961EC065
:101C90008130F1F48091E0018330D1F42889A22FC2
:101CA000BB27A7FDB095FD01EE0FFF1FE955FE4FC5
:101CB00081819281AA0FBB1FAD54BE4F1B962D91FF
:101CC0003C911C97281739071CF401979283818354
:101CD00021E0482D522D632D792D84E891E00E945A
:101CE0006F0221E04A855B856C857D858AE891E0FD
:101CF0000E946F0220917E018091E10181FD03C06D
:101D000081E690E002C083E690E01F922F930AE8FC
:101D100011E01F930F9324E831E03F932F939F939B
:101D20008F93A1ECB0E0BF93AF93A2EEB1E0BF936D
:101D3000AF930E940F1480E80E94B60682EE91E0F5
:101D40000E940E0721E04E815F816885798584E8D5
:101D500091E00E946F020FB6F894DEBF0FBECDBFB8
:101D600038893130A9F48091AB018F938091AA0119
:101D70008F9382ED90E09F938F931F930F930E9418
:101D80000F140F900F900F900F900F900F9019C09D
:101D900080918201909183016CE370E00E94681150
:101DA0009F938F937F936F9389ED90E09F938F9391
:101DB0001F930F930E940F140FB6F894DEBF0FBE4F
:101DC000CDBF4091A8015091A9019889911103C0FC
:101DD00085E690E002C087E491E02AE831E03F9395
:101DE0002F9324E831E03F932F935F934F939F937A
:101DF0008F9382EE90E09F938F93A2EEB1E0BF931A
:101E0000AF930E940F14D0C021E0482D522D632DB6
:101E1000792D84E891E00E946F0221E04A855B857C
:101E20006C857D858AE891E00E946F0220917E0199
:101E30008091E10183FD03C087E491E002C085E663
:101E400090E01F922F932AE831E03F932F9324E8EC
:101E500031E03F932F939F938F93A1ECB0E0BF931A
:101E6000AF93A2EEB1E0BF93AF930E940F1480E84E
:101E70000E94B60682EE91E00E940E0780919601C4
:101E80000FB6F894DEBF0FBECDBF8230D1F4909173
:101E9000E0019230B1F4711014C03E853F5F3E877F
:101EA0008091E101333014F43F3F39F48F7B80613E
:101EB0008093E1018FEF8E873DC080648093E101C4
:101EC00039C09E859F3FB1F1711034C08330E1F479
:101ED0008091E001833071F5A92FBB27A7FDB09554
:101EE000FD01EE0FFF1FE955FE4F85819681AA0F78
:101EF000BB1FA954BE4F1B962D913C911C97821776
:101F00009307C0F4019614C08130A1F48091E001E0
:101F1000833081F4AE85EA2FEE0FFF0BE955FE4FBB
:101F200085819681238534852817390718F4019710
:101F300096838583A091B001B091B101EE85E23026
:101F400019F447E650E002C049E650E0E091AE01E6
:101F5000F091AF012E85213019F42BE630E002C05C
:101F60002EE630E06091AC017091AD018E8581115B
:101F700003C085E690E002C087E491E0BF93AF9391
:101F80005F934F93FF93EF933F932F937F936F93C1
:101F90009F938F93A1EFB0E0BF93AF93A2EEB1E018
:101FA000BF93AF930E940F1480EC0E94B60682EE9E
:101FB00091E00E940E070FB6F894DEBF0FBECDBFB2
:101FC000E0CA8091E10182FF1FC0809196018330B9
:101FD00061F48091E0018330B9F480917E01843610
:101FE00098F480917E018F5F0DC0813069F48091FB
:101FF000E001833049F480917E01882329F08091AB
:102000007E01815080937E0121E0482D522D632D69
:10201000792D84E891E00E946F0221E04A855B857A
:102020006C857D858AE891E00E946F0220917E0197
:102030008091E10182FD03C081E790E002C083E767
:1020400090E01F922F932AE831E03F932F9324E8EA
:1020500031E03F932F939F938F93A1ECB0E0BF9318
:10206000AF93A2EEB1E0BF93AF930E940F1480E84C
:102070009CCF809196018230B9F49091E00192302A
:1020800099F48091E1019F8593509D3F30F48F7BBF
:1020900080618093E1011F8661C03F853F5F3F877C
:1020A00080648093E1015AC09F85992309F456C04A
:1020B000833051F58091E001833009F04FC0A4E0F6
:1020C0009A9F800111240D551E4FF80143A454A47A
:1020D00065A476A420E030E040EA51E4C301B201F7
:1020E0000E94501287FF3AC02DEC3CEC4CEC5DE3B3
:1020F000C301B2010E94EC11D8019B966D937D93B0
:102100008D939C939E972AC0813041F58091E00188
:10211000833021F5EF85B4E0EB9F800111240D554C
:102120001E4FD8019B964D905D906D907C909E9730
:1021300020E030E0A901C301B2010E949F131816EC
:102140006CF42DEC3CEC4CEC5DE3C301B2010E945D
:10215000EB11F80163A774A785A796A74091D20158
:102160005091D3016091D4017091D50121E084E8B0
:1021700091E00E946F024091D6015091D701609189
:10218000D8017091D90121E08AE891E00E946F02A4
:102190004091DA015091DB016091DC017091DD0129
:1021A00021E080E991E00E946F0280E991E09F9335
:1021B0008F938AE891E09F938F9384E891E09F93B7
:1021C0008F9385E091E09F938F93A2EEB1E0BF9350
:1021D000AF930E940F1480E80E94B60682EE91E051
:1021E0000E940E070FB6F894DEBF0FBECDBF3F852D
:1021F000333059F0323071F0313079F42CE630E080
:1022000041E950E083E690E00EC02CE630E047E77D
:1022100050E007C025E730E002C02CE630E041E99D
:1022200050E081E690E05F934F933F932F939F930D
:102230008F9383E191E09F938F93A2EEB1E0BF93E0
:10224000AF930E940F14B0CE80E80E94B60687E2DA
:1022500091E00E940E0780EC0E94B60688E391E0B0
:102260000E940E0780919601823009F08AC9809100
:10227000E001823009F085C980E80E94B60687E255
:1022800091E00E940E0780EC0E94B60689E491E07E
:102290000E940E07F894FFCFDB018F939F930E945B
:1022A000AF11BF91AF91A29F800D911DA39F900D83
:1022B000B29F900D11240895991B79E004C0991FD5
:1022C000961708F0961B881F7A95C9F78095089590
:1022D000AA1BBB1B51E107C0AA1FBB1FA617B7074C
:1022E00010F0A61BB70B881F991F5A95A9F7809568
:1022F0009095BC01CD01089597FB072E16F400942C
:1023000007D077FD09D00E94681107FC05D03EF484
:10231000909581959F4F0895709561957F4F089591
:10232000052E97FB1EF400940E94A71157FD07D0BD
:102330000E94BA1107FC03D04EF40C94A7115095DB
:102340004095309521953F4F4F4F5F4F08959095A1
:102350008095709561957F4F8F4F9F4F08950E9494
:10236000DC11A59F900DB49F900DA49F800D911D31
:1023700011240895A1E21A2EAA1BBB1BFD010DC05A
:10238000AA1FBB1FEE1FFF1FA217B307E407F50725
:1023900020F0A21BB30BE40BF50B661F771F881F01
:1023A000991F1A9469F760957095809590959B0197
:1023B000AC01BD01CF010895A29FB001B39FC00140
:1023C000A39F700D811D1124911DB29F700D811D61
:1023D0001124911D08955058BB27AA270ED075C10E
:1023E00066D130F06BD120F031F49F3F11F41EF430
:1023F0005BC10EF4E095E7FB51C1E92F77D180F383
:10240000BA17620773078407950718F071F49EF5F1
:102410008FC10EF4E0950B2EBA2FA02D0B01B90140
:1024200090010C01CA01A0011124FF27591B99F04A
:10243000593F50F4503E68F11A16F040A22F232F56
:10244000342F4427585FF3CF469537952795A795A6
:10245000F0405395C9F77EF41F16BA0B620B730B4D
:10246000840BBAF09150A1F0FF0FBB1F661F771FBE
:10247000881FC2F70EC0BA0F621F731F841F48F473
:10248000879577956795B795F7959E3F08F0B3CFF9
:102490009395880F08F09927EE0F979587950895E3
:1024A000D9D008F481E008950CD00FC107D140F0D5
:1024B000FED030F021F45F3F19F0F0C0511139C166
:1024C000F3C014D198F39923C9F35523B1F3951BA5
:1024D000550BBB27AA2762177307840738F09F5F45
:1024E0005F4F220F331F441FAA1FA9F333D00E2EB4
:1024F0003AF0E0E830D091505040E695001CCAF721
:1025000029D0FE2F27D0660F771F881FBB1F2617E5
:1025100037074807AB07B0E809F0BB0B802DBF01B8
:10252000FF2793585F4F2AF09E3F510568F0B6C0D1
:1025300000C15F3FECF3983EDCF386957795679595
:10254000B795F7959F5FC9F7880F911D9695879569
:1025500097F90895E1E0660F771F881FBB1F621788
:1025600073078407BA0720F0621B730B840BBA0B46
:10257000EE1F88F7E095089504D06894B111D9C092
:102580000895BCD088F09F5790F0B92F9927B75184
:10259000A0F0D1F0660F771F881F991F1AF0BA9527
:1025A000C9F712C0B13081F0C3D0B1E00895C0C006
:1025B000672F782F8827B85F39F0B93FCCF386951D
:1025C00077956795B395D9F73EF49095809570957A
:1025D00061957F4F8F4F9F4F0895E89409C097FBF7
:1025E0003EF490958095709561957F4F8F4F9F4FEA
:1025F0009923A9F0F92F96E9BB279395F69587952E
:1026000077956795B795F111F8CFFAF4BB0F11F4F0
:1026100060FF1BC06F5F7F4F8F4F9F4F16C0882397
:1026200011F096E911C0772321F09EE8872F762FCD
:1026300005C0662371F096E8862F70E060E02AF00E
:102640009A95660F771F881FDAF7880F96958795FA
:1026500097F90895990F0008550FAA0BE0E8FEEFCF
:1026600016161706E807F907C0F012161306E40756
:10267000F50798F0621B730B840B950B39F40A264F
:1026800061F0232B242B252B21F408950A2609F42D
:10269000A140A6958FEF811D811D089597F99F6731
:1026A00080E870E060E008959FEF80EC08950024DA
:1026B0000A941616170618060906089500240A94A7
:1026C00012161306140605060895092E0394000C2D
:1026D00011F4882352F0BB0F40F4BF2B11F460FFBC
:1026E00004C06F5F7F4F8F4F9F4F089557FD9058E5
:1026F000440F551F59F05F3F71F04795880F97FBC6
:10270000991F61F09F3F79F087950895121613067F
:102710001406551FF2CF4695F1DF08C016161706AE
:102720001806991FF1CF86957105610508940895E3
:10273000E894BB2766277727CB0197F908958ADFAE
:1027400008F48FEF08950BD0C0CFB1DF28F0B6DFCB
:1027500018F0952309F0A2CFA7CF1124EACFC6DF46
:10276000A0F3959FD1F3950F50E0551F629FF001A4
:10277000729FBB27F00DB11D639FAA27F00DB11DFD
:10278000AA1F649F6627B00DA11D661F829F222786
:10279000B00DA11D621F739FB00DA11D621F839F0D
:1027A000A00D611D221F749F3327A00D611D231FE3
:1027B000849F600D211D822F762F6A2F11249F5731
:1027C00050408AF0E1F088234AF0EE0FFF1FBB1F54
:1027D000661F771F881F91505040A9F79E3F5105F3
:1027E00070F05CCFA6CF5F3FECF3983EDCF38695AC
:1027F00077956795B795F795E7959F5FC1F7FE2B9E
:10280000880F911D9695879597F90895FB01DC0136
:1028100002C001900D9241505040D8F70895AEE0AB
:10282000B0E0E5E1F4E10C94E8160D891E8986E03C
:102830008C831A8309838FEF9FE79E838D83AE017C
:10284000475E5F4F6F89788DCE0101960E943114EB
:10285000EF81F885E00FF11F10822E96E4E00C94D2
:102860000417ACE0B0E0E7E3F4E10C94DA167C0185
:102870006B018A01FC0117821682838181FFBDC131
:10288000CE0101964C01F7019381F60193FD8591EC
:1028900093FF81916F01882309F4ABC1853239F42C
:1028A00093FD859193FF81916F01853229F4B701E2
:1028B00090E00E944A16E7CF512C312C20E02032C4
:1028C000A0F48B3269F030F4803259F0833269F42D
:1028D00020612CC08D3239F0803339F4216026C05C
:1028E0002260246023C0286021C027FD27C030ED6E
:1028F000380F3A3078F426FF06C0FAE05F9E300DBC
:102900001124532E13C08AE0389E300D1124332E2B
:1029100020620CC08E3221F426FD6BC1206406C0FB
:102920008C3611F4206802C0883641F4F60193FD1C
:10293000859193FF81916F018111C1CF982F9F7D68
:102940009554933028F40C5F1F4FFFE3F9830DC0BB
:10295000833631F0833771F0833509F05BC022C0D4
:10296000F801808189830E5F1F4F44244394512CCA
:10297000540115C03801F2E06F0E711CF801A080FF
:10298000B18026FF03C0652D70E002C06FEF7FEFBE
:10299000C5012C870E943F162C0183012C852F77BF
:1029A000222E17C03801F2E06F0E711CF801A080D2
:1029B000B18026FF03C0652D70E002C06FEF7FEF8E
:1029C000C5012C870E9434162C012C852068222EEC
:1029D000830123FC1BC0832D90E048165906B0F4F8
:1029E000B70180E290E00E944A163A94F4CFF501D4
:1029F00027FC859127FE81915F01B70190E00E943D
:102A00004A1631103A94F1E04F1A5108411451041A
:102A100071F7E5C0843611F0893639F5F80127FFE2
:102A200007C060817181828193810C5F1F4F08C054
:102A300060817181882777FD8095982F0E5F1F4FE9
:102A40002F76B22E97FF09C090958095709561956D
:102A50007F4F8F4F9F4F2068B22E2AE030E0A401B5
:102A60000E947C16A82EA81844C0853729F42F7E12
:102A7000B22E2AE030E025C0F22FF97FBF2E8F362C
:102A8000C1F018F4883579F0B4C0803719F0883770
:102A900021F0AFC02F2F2061B22EB4FE0DC08B2DC0
:102AA0008460B82E09C024FF0AC09F2F9660B92EFB
:102AB00006C028E030E005C020E130E002C020E19F
:102AC00032E0F801B7FE07C0608171818281938195
:102AD0000C5F1F4F06C06081718180E090E00E5F47
:102AE0001F4FA4010E947C16A82EA818FB2DFF776B
:102AF000BF2EB6FE0BC02B2D2E7FA51450F4B4FEB6
:102B00000AC0B2FC08C02B2D2E7E05C07A2C2B2DBE
:102B100003C07A2C01C0752C24FF0DC0FE01EA0D04
:102B2000F11D8081803311F4297E09C022FF06C087
:102B30007394739404C0822F867809F0739423FDF4
:102B400013C020FF06C05A2C731418F4530C5718E6
:102B5000732C731468F4B70180E290E02C870E9414
:102B60004A1673942C85F5CF731410F4371801C0EE
:102B7000312C24FF12C0B70180E390E02C870E9423
:102B80004A162C8522FF17C021FF03C088E590E07C
:102B900002C088E790E0B7010CC0822F867859F018
:102BA00021FD02C080E201C08BE227FD8DE2B7016A
:102BB00090E00E944A16A51438F4B70180E390E033
:102BC0000E944A165A94F7CFAA94F401EA0DF11D17
:102BD0008081B70190E00E944A16A110F5CF332002
:102BE00009F451CEB70180E290E00E944A163A946F
:102BF000F6CFF7018681978102C08FEF9FEF2C9669
:102C0000E2E10C94F616DC01CB01FC01E199FECF68
:102C100006C0FFBBEEBBE09A31960DB20D9241505B
:102C20005040B8F70895DC01A40FB51F4150504043
:102C300048F0CB01840F951F2E910E94241641501D
:102C40005040D0F70895262FE199FECF9FBB8EBB51
:102C5000E09A01970DB2021631F02DBB0FB6F89431
:102C6000E29AE19A0FBE0895FC0105906150704010
:102C70000110D8F7809590958E0F9F1F0895FC0145
:102C80006150704001900110D8F7809590958E0F9B
:102C90009F1F08950F931F93CF93DF93182F092F32
:102CA000EB018B8181FD03C08FEF9FEF20C082FF7E
:102CB00010C04E815F812C813D81421753077CF407
:102CC000E881F9819F012F5F3F4F3983288310836B
:102CD00006C0E885F985812F0995892B29F72E8172
:102CE0003F812F5F3F4F3F832E83812F902FDF91B6
:102CF000CF911F910F910895FA01AA27283051F121
:102D0000203181F1E8946F936E7F6E5F7F4F8F4F1C
:102D10009F4FAF4FB1E03ED0B4E03CD0670F781F7B
:102D2000891F9A1FA11D680F791F8A1F911DA11D60
:102D30006A0F711D811D911DA11D20D009F4689499
:102D40003F912AE0269F11243019305D3193DEF641
:102D5000CF010895462F4770405D4193B3E00FD0F7
:102D6000C9F7F6CF462F4F70405D4A3318F0495DE2
:102D700031FD4052419302D0A9F7EACFB4E0A695C5
:102D80009795879577956795BA95C9F700976105E7
:102D9000710508959B01AC010A2E0694579547953D
:102DA00037952795BA95C9F7620F731F841F951F32
:102DB000A01D08952F923F924F925F926F927F9243
:102DC0008F929F92AF92BF92CF92DF92EF92FF923B
:102DD0000F931F93CF93DF93CDB7DEB7CA1BDB0BE7
:102DE0000FB6F894DEBF0FBECDBF09942A8839888C
:102DF00048885F846E847D848C849B84AA84B98493
:102E0000C884DF80EE80FD800C811B81AA81B9819E
:102E1000CE0FD11D0FB6F894DEBF0FBECDBFED01B2
:062E20000895F894FFCFB5
:102E26002E700050005400560076005469007469F4
:102E3600006D004D0049004400202D496E69742044
:102E460020454550524F4D2D200025733B25733BA1
:102E5600256400202020202532643A253032643A49
:102E6600253032642020202000202020202D2D0017
:102E7600202020202020202020202020202020204C
:102E860000257320253473202534732025336425CB
:102E960025002532643A2020002532643A25303256
:102EA600640025733A253264202534732020257367
:102EB6000025733A25642025733A2533642025734B
:102EC6003A253264002025347320253473202534B6
:102ED6007320002020202025732020202025732009
:102EE600202020257320002D2D20557067726164E7
:102EF60065204657202D2D005072657373203C4582
:102F06004E543E2062757474002D2D2D2D2D2D2DC1
:0A2F16002D2D2D2D2D2D2D2D2D001C
:00000001FF
