:100000000C942A000C9447000C9447000C94D30BDA
:100010000C9447000C9447000C946A0C0C94470015
:100020000C9447000C9447000C9447000C94470034
:100030000C9447000C94B10B0C9447000C944700AF
:100040000C9447000C9447000C9447000C94470014
:100050000C94470011241FBECFE5D4E0DEBFCDBF16
:1000600011E0A0E6B0E0E2ECF1E302C005900D92F1
:10007000A636B107D9F722E0A6E6B1E001C01D928D
:10008000AD39B207E1F70E94900C0C94DF180C9484
:100090000000CF93DF9300D000D0CDB7DEB74C8304
:1000A0005B836A8389830E94400689810E94580687
:1000B0006A81862F0E9458065B81852F0E94580610
:1000C0004C81842F0E9458060F900F900F900F9034
:1000D000DF91CF910C944C061F93CF93DF931F9227
:1000E000CDB7DEB7182F0E944006812F0E94580618
:1000F00080E00E9458060E944C060E944006812F14
:1001000081600E94580681E00E947A06182F80E0E4
:100110000E947A0689830E944C06898190E0912B87
:100120000F90DF91CF911F910895CF93DF931F928E
:10013000CDB7DEB789830E94340689818093690137
:100140001092680110926701109266010F90DF9182
:10015000CF9108959093670180936601089584304C
:1001600068F54091660150916701823051F083300B
:1001700059F0813019F04368516408C043685165F3
:1001800005C04368516602C043685167506861E02A
:10019000809169010E9449008FE79EE30197F1F782
:1001A00000C00000809169010E946C00009068010D
:1001B00002C0969587950A94E2F7089580E090E052
:1001C000089540916601509167014368516861E06C
:1001D000809169010E9449008FE79EE30197F1F742
:1001E00000C00000809169010E946C0020916801AC
:1001F000022E02C0969587950A94E2F7222329F0F1
:10020000811528E0920708F0906F089540916601EB
:10021000509167014368516B61E0809169010E94D0
:1002200049008FE79EE30197F1F700C0000080913D
:1002300069010E946C0020916801022E02C096950F
:1002400087950A94E2F7222329F0811528E0920786
:1002500008F0906F0895CF93DF93C0916601D0911D
:100260006701813051F030F0823051F0833059F025
:10027000C4680BC0C468D06408C0C468D06505C039
:10028000C468D06602C0C468D067AB010090680142
:1002900002C0440F551F0A94E2F763E080916901A0
:1002A0000E944900AE0161E080916901DF91CF9128
:1002B0000C9449008FE79EE30197F1F700C000001E
:1002C000809169010E946C0020916801022E02C099
:1002D000969587950A94E2F7222329F0811528E064
:1002E000920708F0906F089520916A01223078F407
:1002F00090916C01E92FF0E0E359FE4F80832F5F6E
:1003000020936A0181E0890F817080936C010895C8
:10031000EF92FF920F931F93CF93DF9300D0CDB74F
:10032000DEB72FEF260F30E0A90141595E4F7A0169
:10033000FA014081F901ED58FE4F908190937201CE
:100340008901000F111FD801A858BE4F2D913C9173
:1003500030937701209376018823E1F0253F51E027
:100360003507C8F52F5F3F4F309377012093760113
:100370002630310580F140FD03C0416091E001C0AD
:1003800090E0253F314041F541FD26C04B7F426062
:1003900092E022C040FF0AC041FD08C042FF03C0F6
:1003A0004B7F95E004C010927201446090E042FFE0
:1003B00008C080917201853620F0109272014B7F47
:1003C00093E040FF02C041FD94E01092770110924B
:1003D00076014C7F01C090E042FF07C0809172011E
:1003E000853618F48F5F809372018091720180834B
:1003F000992351F0862F4A8399830E947401998131
:10040000892F0E9474014A81F801E858FE4F8091BB
:1004100076019091770191838083F70140830F905B
:100420000F90DF91CF911F910F91FF90EF90089562
:1004300020916A01222379F090916B01E92FF0E07D
:10044000E359FE4F8081215020936A019F5F917094
:1004500090936B01089580E00895109279011092B5
:10046000780110926F011092730110927B0110922B
:100470007A01109270011092740110927D01109215
:100480007C01109271011092750110926D01109211
:100490006E0110926C0110926B0110926A01D79854
:1004A000DF9AA798AF9AA698AE9A089589B38095D7
:1004B00061E0881F8827881F0E94880183B3809588
:1004C00062E0881F8827881F0E94880183B386FB0B
:1004D000882780F963E091E089270C9488014F9286
:1004E0005F926F927F928F929F92AF92BF92CF92C4
:1004F000DF92EF92FF920F931F93CF93DF93CDB7CD
:10050000DEB72A970FB6F894DEBF0FBECDBF5C01F1
:100510006A017B01822ECE010B96FE013196D50138
:100520001D921192E817F907D9F720E030E0A901F0
:10053000C701B6010E941714882309F47CC080E02B
:1005400090E061E070E0912C2AE08815990544F470
:10055000AB01249FB001259F700D11240196F5CFAA
:1005600026013701E89477F880E090E00E94B41407
:100570009B01AC01C301B2010E946A150E94831461
:10058000FE01319600E010E02AE030E0CB01B90135
:100590000E941313805D8193161617062CF40F5FCB
:1005A0001F4F0A30110591F720E030E040E85FE38B
:1005B000C301B2010E94171487FF0AC00F5F1F4FCB
:1005C000E1E0F0E0EC0FFD1FE00FF11F80E380831E
:1005D00020E030E0A901C701B6010E94171487FF8F
:1005E0000AC00F5F1F4FE1E0F0E0EC0FFD1FE00FCE
:1005F000F11F8DE2808340916000F50180E090E082
:100600009801281939092F5F3F4F8217930711F47A
:1006100040830BC0A1E0B0E0AC0FBD1FA00FB11F25
:100620005C9150830150110920F1019631968B3075
:10063000910559F71EC0882051F02091600080E09C
:1006400090E0912CEFEF8E1A9E0A30E30AC080E30F
:10065000F50180830EC0F5018130910531F42183CD
:10066000019688169906BCF704C0E80FF91F30837D
:10067000F7CF2A960FB6F894DEBF0FBECDBFDF913D
:10068000CF911F910F91FF90EF90DF90CF90BF908F
:10069000AF909F908F907F906F905F904F90089554
:1006A0000F93009360000E946F028EE280936000BF
:1006B0000F9108954F925F926F927F92AF92BF9287
:1006C000CF92DF92EF92FF920F931F93CF93DF931E
:1006D000CDB7DEB729013A01621B730B840B950B72
:1006E00029893A894B895C892A193B094C095D099A
:1006F000298B3A8B4B8B5C8B9B01AC0169897A8986
:100700008B899C890E94E312E418F50806091709F1
:10071000A80197010E9427132A0D3B1D4C1D5D1D4A
:10072000CA01B901DF91CF911F910F91FF90EF9016
:10073000DF90CF90BF90AF907F906F905F904F9081
:1007400008954F925F926F927F92AF92BF92CF9235
:10075000DF92EF92FF920F931F93CF93DF93CDB76A
:10076000DEB728970FB6F894DEBF0FBECDBF2901C4
:100770003A01ED82FE820F8318870E94B2136983CB
:100780007A838B839C83A6019501698D7A8D8B8DED
:100790009C8D0E94B2139B01AC0169817A818B818F
:1007A0009C810E946A1569837A838B839C83A30151
:1007B0009201C801B7010E94B2139B01AC0169818B
:1007C0007A818B819C810E941B14A60195010E9455
:1007D000B31328960FB6F894DEBF0FBECDBFDF91DE
:1007E000CF911F910F91FF90EF90DF90CF90BF902E
:1007F000AF907F906F905F904F900895EF92FF922F
:100800000F931F93621773078407950744F0E6164A
:10081000F706080719072CF4C801B70102C0CA017E
:10082000B9011F910F91FF90EF9008958F929F92C1
:10083000AF92BF92CF92DF92EF92FF920F931F93EE
:10084000CF93DF936B01D82FC92F49015A010E9422
:10085000171487FD0DC09701A801B6018D2F9C2F9D
:100860000E94661518163CF46701D02FC12F03C0F3
:100870006401DA2DCB2DB6018D2F9C2FDF91CF9106
:100880001F910F91FF90EF90DF90CF90BF90AF90AE
:100890009F908F900895982F92959F708F702AE067
:1008A000929F800D112408956AE00E94F31220E1C6
:1008B000829F900D1124892F08951F93CF93DF936A
:1008C0001F92CDB7DEB7182F0E94400680ED0E9420
:1008D0005806812F0E9458060E94400681ED0E9412
:1008E000580680E00E947A0689830E944C0689811E
:1008F0000F90DF91CF911F9108951F93CF93DF93B6
:100900001F92CDB7DEB7182F69830E94400680ED95
:100910000E945806812F0E9458066981862F0E94E6
:1009200058060F90DF91CF911F910C944C06CF93F6
:10093000C82FC3706111C0614111C0680E94400698
:1009400080ED0E94580687E00E9458068C2F0E9476
:100950005806CF910C944C06EF92FF920F931F9381
:10096000CF93DF93EC017B018A010E94400680ED6A
:100970000E94580680E00E9458060E94400681EDC1
:100980000E94580681E00E947A060E944B04F801FA
:10099000808381E00E947A060E944B04F7018083E5
:1009A00080E00E947A060E944B048883DF91CF91F9
:1009B0001F910F91FF90EF900C944C061F93CF93D3
:1009C000DF9300D0CDB7DEB7182F49836A830E942A
:1009D000400680ED0E94580680E00E94580649813A
:1009E000842F0E9454040E9458066A81862F0E9418
:1009F00054040E945806812F0E9454040E945806F5
:100A00000F900F90DF91CF911F910C944C06EF92B5
:100A1000FF920F931F93CF93DF93EC017B018A0129
:100A20000E94400680ED0E94580684E00E9458060D
:100A30000E94400681ED0E94580681E00E947A06DD
:100A40000E944B04888381E00E947A060E944B0436
:100A5000F701808380E00E947A060E944B04F8012F
:100A60008083DF91CF911F910F91FF90EF900C94B5
:100A70004C061F93CF93DF9300D0CDB7DEB7182F6E
:100A80004A8369830E94400680ED0E94580684E0F4
:100A90000E945806812F0E9454040E9458066981C2
:100AA000862F0E9454040E9458064A81842F0E9477
:100AB00054040E9458060F900F90DF91CF911F9120
:100AC0000C944C066F927F928F929F92AF92BF923E
:100AD000CF92DF92EF92FF920F931F93CF93DF930A
:100AE0003C01623008F059C0A62FB0E0ED01CC0FF8
:100AF000DD1FC257DE4F88809980FD0193E0EE0F25
:100B0000FF1F9A95E1F7E258FE4F262D972D990F7A
:100B1000990B372D492F592F692F792F892FA080B5
:100B2000B180C280D380E480F580068117810E9465
:100B30006F1315E0AA0FBB1F1A95E1F7A80DB91D99
:100B4000AA0FBB1FAE56BE4F1196BC901197AC902A
:100B50001B2D110F110BC12ED12EE12EF12E012FC5
:100B60000E94781320833183428353836483758387
:100B700086839783EFEF8E1A9E0A998288826C9201
:100B800011967C92E0E28E16910411F4198218827B
:100B900005E00E945113C90102C08FEF9FEFDF9162
:100BA000CF911F910F91FF90EF90DF90CF90BF906A
:100BB000AF909F908F907F906F90089510927E01DC
:100BC00010927F0110928001109281011092820197
:100BD00010928301109284011092850110928F016E
:100BE00010928E01E2E9F1E01192119281E0E23D72
:100BF000F807D1F7109286011092870110928801B0
:100C00001092890110928A0110928B0110928C012E
:100C100010928D011092910110929001E2EDF1E09D
:100C20001192119282E0E231F807D1F708950000A5
:100C3000000000000000000001970097C1F7089530
:100C4000939A81E090E00C9417068C9A81E090E0F2
:100C50000C9417068C9881E090E00C9417069398FA
:100C600081E090E00C941706949893989398949848
:100C70008B9A8C980E9420060E9425060C942A06C6
:100C80000E9420060E942A060E9420060E94250635
:100C90000E942F060C942A060E942F060E94250609
:100CA0000E9420060E9425060E9420060C942A0617
:100CB000CF93DF93D82FC8E00E942F06D7FF03C041
:100CC0000E942A0602C00E9425060E942006DD0F0F
:100CD000C15091F70E942F060E942A060E9420060A
:100CE000C0B30E942F06C295C17081E08C27DF91AE
:100CF000CF9108951F93CF93DF93182F0E942F0653
:100D00000E942A06D8E0C0E0CC0F0E9420068499F9
:100D1000CF5F0E942F06D150B9F711110E9425060E
:100D20000E9420060E942F068C2FDF91CF911F91E9
:100D300008951F93CF93DF931F92CDB7DEB7182F7F
:100D400069830E944006812F0E9458066981862F80
:100D50000E9458060E944006812F81600E9458061A
:100D600080E00E947A0689830E944C0689810F9058
:100D7000DF91CF911F910895CF93DF9300D01F9201
:100D8000CDB7DEB74B836A8389830E944006898191
:100D90000E9458066A81862F0E9458064B81842F34
:100DA0000E9458060F900F900F90DF91CF910C94F6
:100DB0004C06982F907F84FF02C0DB9A01C0DB981D
:100DC00085FF02C0DC9A01C0DC9886FF02C0DD9A74
:100DD00001C0DD9897FF02C0DE9A01C0DE98DA9A62
:100DE00095E09A95F1F70000DA988295982F907F18
:100DF00084FF02C0DB9A01C0DB9885FF02C0DC9A49
:100E000001C0DC9886FF02C0DD9A01C0DD9897FF23
:100E100002C0DE9A01C0DE98DA9A85E08A95F1F781
:100E20000000DA980895D398D498D598D698DB9A8C
:100E3000DC9ADD9ADE9AD99AD898DA9A95E09A9552
:100E4000F1F70000CB9B02C0806101C08F7ECC9B7C
:100E500002C0806201C08F7DCD9B02C0806401C052
:100E60008F7BCE9B02C0806801C08F77DA98DA9AB8
:100E700095E09A95F1F7000099B399B399B399B3B6
:100E8000DA9887FDDACFD998D39AD49AD59AD69A98
:100E900008959AE69A95F1F700C0D898982F907F18
:100EA00084FF02C0DB9A01C0DB9885FF02C0DC9A98
:100EB00001C0DC9886FF02C0DD9A01C0DD9897FF73
:100EC00002C0DE9A01C0DE98DA9A85E08A95F1F7D1
:100ED0000000DA980895CF93DF931F92CDB7DEB765
:100EE00089830E941307D89889810F90DF91CF9151
:100EF0000C94D906CF93DF931F92CDB7DEB78983C9
:100F00000E941307D89A89810F90DF91CF910C949A
:100F1000D906D39AD49AD59AD69AD09AD19AD29AF7
:100F20002FEF89EF90E0215080409040E1F700C022
:100F3000000080E30E9449078FE19EE40197F1F7EA
:100F400000C0000080E30E9449078FE99FE00197FD
:100F5000F1F700C0000080E30E94490788E20E9488
:100F6000490788E20E946B078CE00E946B0781E0D2
:100F70000E946B078FE99FE00197F1F700C0000026
:100F800086E00C946B07CF93DF93EC018991882363
:100F900019F00E947A07FACFDF91CF910895CF938D
:100FA000DF93EC018881882331F0FE018491219642
:100FB0000E947A07F7CFDF91CF9108950F931F9387
:100FC000CF93DF93EC01677028E0629FC00111248A
:100FD00080640E946B078E01085F1F4FFE018491A1
:100FE00021960E947A07C017D107C1F7DF91CF91F0
:100FF0001F910F910895853610F4809323028091FC
:1010000023020895F89447E350E060E070E08EE436
:1010100092E00E94E117789408958AE080934E024E
:101020002FE530E0309354022093530280EE91E09C
:1010300090935602809355028EE190E0909358026F
:101040008093570242E350E050935A024093590272
:1010500030936A022093690241E050E050935C02B1
:1010600040935B0240EC53E050936C0240936B0260
:101070004AE050E050935E0240935D0290936E020E
:1010800080936D021092600210925F0247E150E07F
:101090005093700240936F021092620210926102AC
:1010A0004BE350E05093720240937102109264023D
:1010B00010926302509374024093730248E250E02E
:1010C0005093660240936502309376022093750236
:1010D000109268021092670223E630E030937802A3
:1010E0002093770221E430E03093500220934F02A6
:1010F000909352028093510280E090E0A0E2B1E42C
:101100008093790290937A02A0937B02B0937C0241
:1011100080E090E0A0E0BFE380937D0290937E02A8
:10112000A0937F02B093800280E090E0A0E0B0E462
:101130008093810290938202A0938302B0938402F1
:101140000C9402080E94180280933D02882321F02B
:101150000E94180280938B020895B99AC1988E9AC2
:1011600096988D9A9598A09AA898B89AC098A198A0
:10117000A99AA298AA9AA398AB9AA498AC9AA5986F
:10118000AD9A08958F929F92AF92BF92CF92DF92C5
:10119000EF92FF92CF93DF934B015C01EA01622F44
:1011A00070E080E090E00E94B41420E030E040E580
:1011B00051E40E94B3132FE23DED44E95FE30E9446
:1011C0006A156B017C01609153027091540280E0BA
:1011D00090E00E94B414A50194010E94B2139B01F7
:1011E000AC01C701B6010E946A156B017C01BE010A
:1011F00080E090E00E94B41420E030E040E752E448
:101200000E941B1428E431EE4AE75FE30E946A154E
:101210009B01AC01C701B6010E941B1420E030E81D
:101220004BE355E40E941B1420E030E048EC52E40C
:101230000E946A150E948814653671058105910522
:1012400020F064E670E080E090E0862FDF91CF919F
:10125000FF90EF90DF90CF90BF90AF909F908F90D6
:1012600008951FBC84E08EBD1DBC1CBC81E19AE7C3
:101270009BBD8ABD19BC18BC17BC16BC089584E080
:1012800085BD12BC14BC8CE783BD08954F925F925C
:101290006F927F92AF92BF92CF92DF92EF92FF92C6
:1012A0000F931F93CF93DF9300D000D0CDB7DEB75D
:1012B0000E94B21369837A838B839C839B01AC0168
:1012C000C801B7010E946A15E12CF12C08EC12E468
:1012D00020E030E048EC52EC0E9416042B013C0167
:1012E00020E030E0A901C601B5010E94661518167C
:1012F00044F5A601950169817A818B819C810E94C8
:101300001B1420911E0230911F0240912002509127
:1013100021020E94B31360931E0270931F028093F8
:1013200020029093210220E030E0A9010E941604DF
:1013300060931E0270931F028093200290932102FB
:1013400008C010921E0210921F02109220021092EA
:10135000210220911A0230911B0240911C025091EF
:101360001D0269817A818B819C810E94B2139B014D
:10137000AC016D897E898F89988D0E946A15E12C58
:10138000F12C08EC12E420E030E048EC52EC0E9432
:1013900016046B017C0189819A81AB81BC818093A9
:1013A0001A0290931B02A0931C02B0931D0220917D
:1013B0001E0230911F024091200250912102C30170
:1013C000B2010E94B313A70196010E94B3130E94B9
:1013D0008314882777FD8095982F14E6E12EF12C51
:1013E00000E010E020E030E0A9010E94FE03862F1B
:1013F0000F900F900F900F90DF91CF911F910F9151
:10140000FF90EF90DF90CF90BF90AF907F906F9064
:101410005F904F90089590BD89B988ED8AB986E8AC
:1014200080BD08950F931F93CF93DF93EC01099034
:101430000020E9F72197C81BD90B8E011127A801BD
:10144000BC018EE392E00E94CD15CE5FC0932202D4
:10145000F801E25CFD4F8DE080838AE0818380911A
:101460003E028CB9DF91CF911F910F910895209189
:101470008C0227FD09C0909326028093250270E01C
:1014800070938A026093890208954F925F926F92DF
:101490007F92AF92BF92CF92DF92EF92FF920F9323
:1014A0001F93CF93DF9300D000D0CDB7DEB72901D3
:1014B0003A0120E030E04EEB52E40E941714181677
:1014C000BCF1A0907D02B0907E02C0907F02D090CF
:1014D00080028091790290917A02A0917B02B09172
:1014E0007C0289839A83AB83BC8360914F027091A5
:1014F0005002882777FD8095982F0E94B61420917E
:1015000084022F93209183022F93209182022F93A4
:10151000209181022F93E980FA800B811C81A30125
:1015200092010E9446090F900F900F900F9001C0FA
:1015300080E00F900F900F900F90DF91CF911F914F
:101540000F91FF90EF90DF90CF90BF90AF907F9082
:101550006F905F904F9008951092620008954F929F
:101560005F926F927F928F929F92AF92BF92CF9233
:10157000DF92EF92FF920F931F93CF93DF93CDB73C
:10158000DEB72C970FB6F894DEBF0FBECDBF6B0150
:101590007C0129013A01609157027091580280E064
:1015A00090E00E94B41420E030E040E551E40E9455
:1015B000B31320E030E048EC52E40E941B149B017E
:1015C000AC0160E070E080E591E40E941B1420E033
:1015D00030E048EC52E40E941B146D837E838F83BD
:1015E00098872D813E814F81588560E070E080E8CA
:1015F0009FE30E94B21369837A838B839C832D813E
:101600003E814F81588589819A81AB81BC818987D0
:101610009A87AB87BC87C701B6010E946A154B0148
:101620005C0129853A854B855C85C301B2010E9426
:101630006A159B01AC01C501B4010E94B31360930C
:10164000850270938602809387029093880280912E
:101650006200813019F1823099F181116AC0C09025
:101660008502D0908602E0908702F0908802609117
:101670004F0270915002882777FD8095982F0E9425
:10168000B6149B01AC01C701B6010E94661518167D
:101690000CF04DC081E08093620049C0A30192012B
:1016A000C701B6010E94B21320E030E040E050E4F0
:1016B0000E94171487FF3DC082E08093620039C00A
:1016C000A0907D02B0907E02C0907F02D0908002F8
:1016D0008091790290917A02A0917B02B0917C0274
:1016E00089879A87AB87BC8760914F0270915002BF
:1016F000882777FD8095982F0E94B6142091840248
:101700002F93209183022F93209182022F93209177
:1017100081022F93E984FA840B851C85A301920131
:101720000E9446090F900F900F900F9003C084E61F
:1017300001C080E02C960FB6F894DEBF0FBECDBF7F
:10174000DF91CF911F910F91FF90EF90DF90CF909D
:10175000BF90AF909F908F907F906F905F904F90D1
:1017600008951F920F920FB60F9211248F93EF934B
:10177000FF93E091610080912202E81748F4F0E0C5
:10178000E25CFD4F80818CB9809161008F5F01C068
:1017900081E080936100FF91EF918F910F900FBED8
:1017A0000F901F9018951F920F920FB60F92112451
:1017B0002F933F934F935F936F937F938F939F9359
:1017C000AF93BF93EF93FF9314BCA8958091190238
:1017D0008F5F809319028A30A1F4109219029091C0
:1017E000230280911802891710F0C19801C0C19A94
:1017F000809118028F5F80931802843611F4109242
:101800001802809116029091170201968436910574
:1018100029F0909317028093160209C010921702C4
:101820001092160280918C02816080938C020E943B
:1018300056028091890290918A02892BD1F1809180
:101840001402909115020196909315028093140250
:1018500020912502309126028217930740F480914F
:10186000120290911302892B11F4C09A22C0C098E1
:10187000809112029091130201969093130280932B
:10188000120220912502309126028217930788F0D8
:10189000109213021092120210921502109214026A
:1018A0008091890290918A02019790938A02809395
:1018B0008902FF91EF91BF91AF919F918F917F919D
:1018C0006F915F914F913F912F910F900FBE0F90AD
:1018D0001F9018951F920F920FB60F9211242F93FD
:1018E0008F939F931DBC1CBC80912702909128026E
:1018F000009749F020912402213029F40197909318
:1019000028028093270280918C02806280938C024F
:101910009F918F912F910F900FBE0F901F90189550
:10192000CF93DF93CDB7DEB72D970FB6F894DEBF18
:101930000FBECDBF80E90E94950080E096E00E9436
:10194000AA0083E390E00E940B0A0E94AD080E9467
:101950002D020E94890747E350E060E070E08EE4CA
:1019600092E00E94D11780914E028F3F11F09F9913
:101970001DC080E80E946B078BE790E00E94C307C0
:101980009F9BFECF0E940D082FEF34E38CE0215087
:1019900030408040E1F700C0000081E00E946B070A
:1019A000AFE9BFE01197F1F700C000000E943109D4
:1019B0000E943F0940E061E080E00E949704AE0190
:1019C0004D5F5F4FBE016E5F7F4FCE0101960E945B
:1019D000AC0480E989BFA8952EE088E190E00FB6BD
:1019E000F894A89581BD0FBE21BD789463E08AEF7D
:1019F00090E00E94370A0E94DE05C12CD12C2CE514
:101A0000E22E22E4F22E812C912C32E8A32E32E435
:101A1000B32EBFEFBB8701E0EFEFEA87FFEFFE8356
:101A200019869E012F5F3F4F3D832C834DE8642E26
:101A300042E0742E3C813C878D818D870E94A208F4
:101A400080918C0281FB112710F982FB992790F974
:101A5000190F83FB992790F9190F84FF05C08F7E1A
:101A600080938C020E94020880913D028230D1F561
:101A700080918B028330B1F5033079F0043001F1AD
:101A8000023029F5969A80918C02826080938C02B4
:101A9000109224021092620020C0969A80918C02CB
:101AA000886080938C02409155025091560220919B
:101AB0005702C501B4010E94C208809323020DC0E1
:101AC00080918C02846080938C02969A06C08091EB
:101AD0008C02897F877F80938C0280918C02806149
:101AE00080938C0280913D02823091F480918B0230
:101AF000853071F480918C02897F877F80938C027E
:101B000010922302969880918C02806180938C02BF
:101B10009D9908C09DEC292E9CEC392E432C9DE309
:101B2000592E06C0212C312C80E8482E8FE3582EE8
:101B300099990AC0999BFECFA2019101C501B401F8
:101B40000E94B3134B015C019A990AC09A9BFECF85
:101B5000A2019101C501B4010E94B2134B015C01C5
:101B60009B990AC09B9BFECFA2019101C701B601C0
:101B70000E94B3136B017C019C990AC09C9BFECF11
:101B8000A2019101C701B6010E94B2136B017C0151
:101B900080918C0280FF98C08E7F80938C0286FD9E
:101BA0000AC0AE014D5F5F4FBE016E5F7F4F8C85F7
:101BB0009D850E94AC0480918C0281FF4CC0A701DE
:101BC0009601C501B4010E94AF0A8093230280915F
:101BD0002402811115C060914F0270915002882734
:101BE00077FD8095982F0E94B6149B01AC01C70128
:101BF000B6010E94661587FD03C081E08093240230
:101C000080912402813039F5809127029091280239
:101C1000892B09F510922302809123022091510211
:101C2000309152024CE3429FC001439F900D11241A
:101C3000909328028093270281E00E946B07AFE90E
:101C4000BFE01197F1F700C0000080918C028D7FFA
:101C5000806180938C0280918C0285FF35C08F7DDE
:101C600080938C02EDE8F2E01192B2E0ED39FB07CF
:101C7000D9F721E0B501A4018BE292E00E946F0246
:101C800021E0B701A60181E392E00E946F028091FA
:101C900023021F928F9381E392E09F938F938BE2B5
:101CA00092E09F938F93ACE8B0E0BF93AF937F92A5
:101CB0006F920E94DD158DE892E00E94120A0FB625
:101CC000F894DEBF0FBECDBF80918C0286FD28C088
:101CD000111126C080913D02833011F580918B0255
:101CE0008230F1F40F5F073089F0023081F42091E7
:101CF0005102309152024CE3429FC001439F900D2C
:101D00001124909328028093270201C001E081E012
:101D10000E946B078FE99FE00197F1F700C0000078
:101D200080918C0286FD27C0111125C080913D0253
:101D3000813009F580918B028230E9F4015089F0FD
:101D4000023081F420915102309152024CE3429FC3
:101D5000C001439F900D1124909328028093270285
:101D600001C006E081E00E946B07AFE9BFE0119778
:101D7000F1F700C00000033009F4F0C130F4013085
:101D800069F0023009F4C9C059CE053009F40DC319
:101D900008F4B9C2063009F4EEC350CE2B81822F6D
:101DA000992787FD90959F932F932A81822F9927BA
:101DB00087FD90959F932F932981822F992787FDE7
:101DC00090959F932F9385E990E09F938F937F92B7
:101DD0006F920E94DD1580E80E946B078DE892E00B
:101DE0000E94C3070FB6F894DEBF0FBECDBF80912F
:101DF0003D02823071F580918B02823051F5FB8576
:101E0000FF5FFB8780918C02F33094F4FF3F81F0F9
:101E1000806480938C028F2F880F8F0F8F70805C6F
:101E200080680E946B078BEA90E00E94C30711C094
:101E30008F7B80938C0280EC0E946B0782EB90E09A
:101E40000E94C3074B816A8189810E94DE042FEFC3
:101E50002B8780918C0286FFF1CD80913D028330EB
:101E600069F580918B02833009F0E8CD3B85A32F83
:101E7000BB27A7FDB095E1E0F0E0EC0FFD1FEA0FF6
:101E8000FB1F20812F5F2083CD010396332727FD81
:101E90003095AA0FBB1FAC59BD4F1B964D915C915D
:101EA0001C97421753070CF0C9CDDC01AA0FBB1FCA
:101EB000A25BBD4F1B968C918083C0CD813009F011
:101EC000BDCD80918B02833009F0B8CD8B85A82FD2
:101ED000BB27A7FDB09541E050E04C0F5D1F4A0FB6
:101EE0005B1FFA01208121502083332727FD309585
:101EF000CD01880F991F8C5A9D4FFC0183859485D5
:101F0000281739070CF09ACDAA0FBB1FAC59BD4F4B
:101F10001B968C91DA018C9391CD80913D02823099
:101F200041F590918B02923021F5111122C0BA85B2
:101F3000BF5FBA8780918C02B23014F4BF3FA9F41E
:101F40008F7B806180938C022091510230915202EC
:101F50004CE3429FC001439F900D112490932802AF
:101F600080932702EFEFEA8748C0806480938C0259
:101F700044C0FA85FF3F09F440C011113EC08330D0
:101F8000E1F480918B028330C1F5AF2FBB27A7FD11
:101F9000B095FD01EE0FFF1FE25BFD4F8181928145
:101FA000AA0FBB1FA659BD4F1B962D913C911C97A4
:101FB0008217930714F501961EC08130F1F48091C9
:101FC0008B028330D1F42A85A22FBB27A7FDB095C1
:101FD000FD01EE0FFF1FE25BFD4F81819281AA0F91
:101FE000BB1FA65ABD4F1B962D913C911C972817DD
:101FF00039071CF401979283818321E0B501A40184
:102000008BE292E00E946F0221E0B701A60181E31A
:1020100092E00E946F022091230280918C0281FD48
:1020200003C083E690E002C085E690E01F922F9304
:1020300021E332E03F932F932BE232E03F932F9343
:102040009F938F93A3ECB0E0BF93AF937F926F9277
:102050000E94DD1580E80E946B078DE892E00E94E7
:10206000C307809162000FB6F894DEBF0FBECDBFEC
:10207000813091F0823099F0811114C04091850235
:1020800050918602609187027091880221E08BE274
:1020900092E00E946F020CC064ED70E005C069ED33
:1020A00070E002C06EEB70E08BE292E00E94D61509
:1020B0003A853130B9F4809152028F938091510268
:1020C0008F938EED90E09F938F9381E392E09F93A7
:1020D0008F930E94DD150F900F900F900F900F902F
:1020E0000F901BC080912702909128026CE370E052
:1020F0000E94FF129F938F937F936F9385EE90E0E2
:102100009F938F9381E392E09F938F930E94DD15BD
:102110000FB6F894DEBF0FBECDBF40914F02509175
:1021200050029A85911103C087E690E002C087EDC6
:1021300090E021E332E03F932F932BE232E03F9394
:102140002F935F934F939F938F938EEE90E09F9387
:102150008F937F926F920E94DD15C8C021E0B50178
:10216000A4018BE292E00E946F0221E0B701A60178
:1021700081E392E00E946F022091230280918C0201
:1021800083FD03C087ED90E002C087E690E01F92D8
:102190002F9321E332E03F932F932BE232E03F93E2
:1021A0002F939F938F93A3ECB0E0BF93AF937F9255
:1021B0006F920E94DD1580E80E946B078DE892E027
:1021C0000E94C30780913D020FB6F894DEBF0FBE98
:1021D000CDBF8230D1F490918B029230B1F41111C5
:1021E00014C03E813F5F3E8380918C02333014F4F3
:1021F0003F3F39F48F7B806180938C028FEF8E8319
:102200003DC0806480938C0239C09E819F3FB1F1B4
:10221000111134C08330E1F480918B02833071F569
:10222000A92FBB27A7FDB095FD01EE0FFF1FE25BB5
:10223000FD4F85819681AA0FBB1FA25ABD4F1B96E9
:102240002D913C911C9782179307C0F4019614C0FE
:102250008130A1F480918B02833081F4AE81EA2F2A
:10226000EE0FFF0BE25BFD4F858196812385348560
:102270002817390718F4019796838583A091570290
:10228000B0915802EE81E23019F449E650E002C004
:102290004BE650E0E0915502F09156022E8121303C
:1022A00019F42DE630E002C020E730E060915302DF
:1022B000709154028E81811103C087E690E002C0C4
:1022C00087ED90E0BF93AF935F934F93FF93EF93AE
:1022D0003F932F937F936F939F938F93ADEFB0E0D6
:1022E000BF93AF937F926F920E94DD1580EC0E94A6
:1022F0006B078DE892E00E94C3070FB6F894DEBF2B
:102300000FBECDBF9BCB80918C0282FF1FC08091FE
:102310003D02833061F480918B028330B9F4809167
:102320002302843698F4809123028F5F0DC08130A0
:1023300069F480918B02833049F4809123028823D1
:1023400029F08091230281508093230221E0B5017E
:10235000A4018BE292E00E946F0221E0B701A60186
:1023600081E392E00E946F022091230280918C020F
:1023700082FD03C083E790E002C085E790E01F92F2
:102380002F9321E332E03F932F932BE232E03F93F0
:102390002F939F938F93A3ECB0E0BF93AF937F9263
:1023A0006F920E94DD1580E8A2CF80913D028230BD
:1023B000B9F490918B02923099F480918C029985B6
:1023C00093509D3F30F48F7B806180938C021986FF
:1023D00060C039853F5F3987806480938C0259C023
:1023E0009985992309F455C0833031F580918B028A
:1023F000833009F04EC0E4E09E9FD0011124A65B1B
:10240000BD4FB887AF839B962D903D904D905C90CB
:102410009E9720E030E048E452E4C201B1010E94FE
:10242000171487FF36C02DEC3CEC4CEC5DE3C20189
:10243000B1010E94B31327C0813059F580918B02FE
:10244000833039F5298584E0289F90011124265B8B
:102450003D4F38872F83D9019B962D903D904D900D
:102460005C909E9720E030E0A901C201B1010E947A
:102470006615181674F42DEC3CEC4CEC5DE3C201CF
:10248000B1010E94B213EF81F88563A774A785A7F5
:1024900096A74091790250917A0260917B027091E7
:1024A0007C0221E08BE292E00E946F0240917D026B
:1024B00050917E0260917F027091800221E081E361
:1024C00092E00E946F0240918102509182026091DD
:1024D00083027091840221E087E392E00E946F0200
:1024E00087E392E09F938F9381E392E09F938F9392
:1024F0008BE292E09F938F9381E191E09F938F9382
:102500007F926F920E94DD1580E80E946B078DE834
:1025100092E00E94C3070FB6F894DEBF0FBECDBF96
:102520003985333059F0323071F0313079F42EE69C
:1025300030E043E950E085E690E00EC02EE630E062
:1025400049E750E007C027E730E002C02EE630E060
:1025500043E950E083E690E05F934F933F932F93DE
:102560009F938F938FE191E09F938F937F926F92D0
:102570000E94DD15BBCE80E80E946B0783E391E0EB
:102580000E94C30780EC0E946B0784E491E00E94E4
:10259000C30780913D02823009F050CA80918B02BE
:1025A000823009F04BCA80E80E946B0783E391E018
:1025B0000E94C30780EC0E946B0785E591E00E94B2
:1025C000C307F894FFCFDB018F939F930E944613BC
:1025D000BF91AF91A29F800D911DA39F900DB29FBF
:1025E000900D11240895991B79E004C0991F961746
:1025F00008F0961B881F7A95C9F780950895AA1B45
:10260000BB1B51E107C0AA1FBB1FA617B70710F0DD
:10261000A61BB70B881F991F5A95A9F7809590950F
:10262000BC01CD01089597FB072E16F4009407D046
:1026300077FD09D00E94FF1207FC05D03EF490956B
:1026400081959F4F0895709561957F4F0895052E50
:1026500097FB1EF400940E943E1357FD07D00E9482
:10266000811307FC03D04EF40C943E135095409513
:10267000309521953F4F4F4F5F4F0895909580952E
:10268000709561957F4F8F4F9F4F08950E94A313C0
:10269000A59F900DB49F900DA49F800D911D1124B6
:1026A000089597FB10F8169400080F93083098F0DF
:1026B0000850232F342F452F562F672F782F892F1F
:1026C000902DF4CF059497958795779567955795B5
:1026D0004795379527950A95AAF70F9108952A0DE2
:1026E0003B1D4C1D5D1D6E1D7F1D801F911F08959C
:1026F0002A193B094C095D096E097F09800B910B72
:102700000895A1E21A2EAA1BBB1BFD010DC0AA1F32
:10271000BB1FEE1FFF1FA217B307E407F50720F04A
:10272000A21BB30BE40BF50B661F771F881F991FC5
:102730001A9469F760957095809590959B01AC010E
:10274000BD01CF010895A29FB001B39FC001A39F17
:10275000700D811D1124911DB29F700D811D1124DA
:10276000911D08955058BB27AA270ED075C166D178
:1027700030F06BD120F031F49F3F11F41EF45BC1B7
:102780000EF4E095E7FB51C1E92F77D180F3BA173A
:10279000620773078407950718F071F49EF58FC1DF
:1027A0000EF4E0950B2EBA2FA02D0B01B90190016C
:1027B0000C01CA01A0011124FF27591B99F0593FB0
:1027C00050F4503E68F11A16F040A22F232F342FF8
:1027D0004427585FF3CF469537952795A795F04046
:1027E0005395C9F77EF41F16BA0B620B730B840B5B
:1027F000BAF09150A1F0FF0FBB1F661F771F881F13
:10280000C2F70EC0BA0F621F731F841F48F487956A
:1028100077956795B795F7959E3F08F0B3CF939559
:10282000880F08F09927EE0F979587950895D9D0CE
:1028300008F481E008950CD00FC107D140F0FED01C
:1028400030F021F45F3F19F0F0C0511139C1F3C0ED
:1028500014D198F39923C9F35523B1F3951B550B64
:10286000BB27AA2762177307840738F09F5F5F4F63
:10287000220F331F441FAA1FA9F333D00E2E3AF0A4
:10288000E0E830D091505040E695001CCAF729D0BE
:10289000FE2F27D0660F771F881FBB1F261737070D
:1028A0004807AB07B0E809F0BB0B802DBF01FF273D
:1028B00093585F4F2AF09E3F510568F0B6C000C1A3
:1028C0005F3FECF3983EDCF3869577956795B79577
:1028D000F7959F5FC9F7880F911D9695879597F992
:1028E0000895E1E0660F771F881FBB1F621773070B
:1028F0008407BA0720F0621B730B840BBA0BEE1F20
:1029000088F7E095089504D06894B111D9C008956E
:10291000BCD088F09F5790F0B92F9927B751A0F0FD
:10292000D1F0660F771F881F991F1AF0BA95C9F763
:1029300012C0B13081F0C3D0B1E00895C0C0672F9C
:10294000782F8827B85F39F0B93FCCF38695779513
:102950006795B395D9F73EF49095809570956195FC
:102960007F4F8F4F9F4F0895E89409C097FB3EF427
:1029700090958095709561957F4F8F4F9F4F9923CC
:10298000A9F0F92F96E9BB279395F695879577954A
:102990006795B795F111F8CFFAF4BB0F11F460FF0A
:1029A0001BC06F5F7F4F8F4F9F4F16C0882311F062
:1029B00096E911C0772321F09EE8872F762F05C076
:1029C000662371F096E8862F70E060E02AF09A9511
:1029D000660F771F881FDAF7880F9695879597F906
:1029E0000895990F0008550FAA0BE0E8FEEF1616A0
:1029F0001706E807F907C0F012161306E407F507F3
:102A000098F0621B730B840B950B39F40A2661F066
:102A1000232B242B252B21F408950A2609F4A14009
:102A2000A6958FEF811D811D089597F99F6780E816
:102A300070E060E008959FEF80EC089500240A9410
:102A40001616170618060906089500240A94121689
:102A50001306140605060895092E0394000C11F4BC
:102A6000882352F0BB0F40F4BF2B11F460FF04C069
:102A70006F5F7F4F8F4F9F4F089557FD9058440FC2
:102A8000551F59F05F3F71F04795880F97FB991FCD
:102A900061F09F3F79F0879508951216130614068A
:102AA000551FF2CF4695F1DF08C016161706180617
:102AB000991FF1CF86957105610508940895E894F2
:102AC000BB2766277727CB0197F908958ADF08F49B
:102AD0008FEF08950BD0C0CFB1DF28F0B6DF18F02C
:102AE000952309F0A2CFA7CF1124EACFC6DFA0F328
:102AF000959FD1F3950F50E0551F629FF001729F93
:102B0000BB27F00DB11D639FAA27F00DB11DAA1FB1
:102B1000649F6627B00DA11D661F829F2227B00DFE
:102B2000A11D621F739FB00DA11D621F839FA00D89
:102B3000611D221F749F3327A00D611D231F849FD9
:102B4000600D211D822F762F6A2F11249F57504030
:102B50008AF0E1F088234AF0EE0FFF1FBB1F661FCB
:102B6000771F881F91505040A9F79E3F510570F084
:102B70005CCFA6CF5F3FECF3983EDCF3869577956C
:102B80006795B795F795E7959F5FC1F7FE2B880F7F
:102B9000911D9695879597F90895FB01DC0102C078
:102BA00001900D9241505040D8F70895FB01DC018F
:102BB00001900D920020E1F70895AEE0B0E0E3EE61
:102BC000F5E10C94B6180D891E8986E08C831A8372
:102BD00009838FEF9FE79E838D83AE01475E5F4F32
:102BE0006F89788DCE0101960E94FF15EF81F885DF
:102BF000E00FF11F10822E96E4E00C94D218ACE0A6
:102C0000B0E0E5E0F6E10C94A8187C016B018A01C4
:102C1000FC0117821682838181FFBDC1CE0101961E
:102C20004C01F7019381F60193FD859193FF81910A
:102C30006F01882309F4ABC1853239F493FD859186
:102C400093FF81916F01853229F4B70190E00E94D2
:102C50001818E7CF512C312C20E02032A0F48B3211
:102C600069F030F4803259F0833269F420612CC06D
:102C70008D3239F0803339F4216026C0226024601F
:102C800023C0286021C027FD27C030ED380F3A301F
:102C900078F426FF06C0FAE05F9E300D1124532E13
:102CA00013C08AE0389E300D1124332E20620CC0F0
:102CB0008E3221F426FD6BC1206406C08C3611F4DF
:102CC000206802C0883641F4F60193FD859193FF98
:102CD00081916F018111C1CF982F9F7D95549330C1
:102CE00028F40C5F1F4FFFE3F9830DC0833631F0EA
:102CF000833771F0833509F05BC022C0F801808111
:102D000089830E5F1F4F44244394512C540115C0F6
:102D10003801F2E06F0E711CF801A080B18026FF2F
:102D200003C0652D70E002C06FEF7FEFC5012C87F7
:102D30000E940D182C0183012C852F77222E17C09D
:102D40003801F2E06F0E711CF801A080B18026FFFF
:102D500003C0652D70E002C06FEF7FEFC5012C87C7
:102D60000E9402182C012C852068222E830123FC4E
:102D70001BC0832D90E048165906B0F4B70180E2DD
:102D800090E00E9418183A94F4CFF50127FC859141
:102D900027FE81915F01B70190E00E941818311061
:102DA0003A94F1E04F1A51084114510471F7E5C00B
:102DB000843611F0893639F5F80127FF07C06081A4
:102DC0007181828193810C5F1F4F08C06081718186
:102DD000882777FD8095982F0E5F1F4F2F76B22E94
:102DE00097FF09C090958095709561957F4F8F4FA3
:102DF0009F4F2068B22E2AE030E0A4010E944A18BA
:102E0000A82EA81844C0853729F42F7EB22E2AE0B8
:102E100030E025C0F22FF97FBF2E8F36C1F018F4B5
:102E2000883579F0B4C0803719F0883721F0AFC009
:102E30002F2F2061B22EB4FE0DC08B2D8460B82ED2
:102E400009C024FF0AC09F2F9660B92E06C028E053
:102E500030E005C020E130E002C020E132E0F801BE
:102E6000B7FE07C060817181828193810C5F1F4F23
:102E700006C06081718180E090E00E5F1F4FA40169
:102E80000E944A18A82EA818FB2DFF77BF2EB6FE69
:102E90000BC02B2D2E7FA51450F4B4FE0AC0B2FC3B
:102EA00008C02B2D2E7E05C07A2C2B2D03C07A2C2A
:102EB00001C0752C24FF0DC0FE01EA0DF11D8081BB
:102EC000803311F4297E09C022FF06C073947394E5
:102ED00004C0822F867809F0739423FD13C020FF6D
:102EE00006C05A2C731418F4530C5718732C73140F
:102EF00068F4B70180E290E02C870E941818739460
:102F00002C85F5CF731410F4371801C0312C24FF31
:102F100012C0B70180E390E02C870E9418182C851E
:102F200022FF17C021FF03C088E590E002C088E7B8
:102F300090E0B7010CC0822F867859F021FD02C0C5
:102F400080E201C08BE227FD8DE2B70190E00E9494
:102F50001818A51438F4B70180E390E00E941818FF
:102F60005A94F7CFAA94F401EA0DF11D8081B701BC
:102F700090E00E941818A110F5CF332009F451CE2B
:102F8000B70180E290E00E9418183A94F6CFF7015A
:102F90008681978102C08FEF9FEF2C96E2E10C941F
:102FA000C418DC01CB01FC01E199FECF06C0FFBBD8
:102FB000EEBBE09A31960DB20D9241505040B8F7F9
:102FC0000895DC01A40FB51F4150504048F0CB01DB
:102FD000840F951F2E910E94F21741505040D0F758
:102FE0000895262FE199FECF9FBB8EBBE09A0197F3
:102FF0000DB2021631F02DBB0FB6F894E29AE19AA9
:103000000FBE0895FC010590615070400110D8F783
:10301000809590958E0F9F1F0895FC016150704020
:1030200001900110D8F7809590958E0F9F1F0895FD
:103030000F931F93CF93DF93182F092FEB018B81F1
:1030400081FD03C08FEF9FEF20C082FF10C04E8133
:103050005F812C813D81421753077CF4E881F9811F
:103060009F012F5F3F4F39832883108306C0E88577
:10307000F985812F0995892B29F72E813F812F5FB3
:103080003F4F3F832E83812F902FDF91CF911F9150
:103090000F910895FA01AA27283051F1203181F1CA
:1030A000E8946F936E7F6E5F7F4F8F4F9F4FAF4F50
:1030B000B1E03ED0B4E03CD0670F781F891F9A1F63
:1030C000A11D680F791F8A1F911DA11D6A0F711D17
:1030D000811D911DA11D20D009F468943F912AE023
:1030E000269F11243019305D3193DEF6CF0108950B
:1030F000462F4770405D4193B3E00FD0C9F7F6CF3C
:10310000462F4F70405D4A3318F0495D31FD405203
:10311000419302D0A9F7EACFB4E0A6959795879599
:1031200077956795BA95C9F7009761057105089578
:103130009B01AC010A2E0694579547953795279524
:10314000BA95C9F7620F731F841F951FA01D0895BC
:103150002F923F924F925F926F927F928F929F92A7
:10316000AF92BF92CF92DF92EF92FF920F931F9395
:10317000CF93DF93CDB7DEB7CA1BDB0B0FB6F89446
:10318000DEBF0FBECDBF09942A88398848885F8486
:103190006E847D848C849B84AA84B984C884DF80F7
:1031A000EE80FD800C811B81AA81B981CE0FD11DDB
:1031B0000FB6F894DEBF0FBECDBFED010895F894B1
:0231C000FFCF3F
:1031C2002E01FF7000500054005600760054690032
:1031D2007469006D004D0049004400202D496E695C
:1031E200742020454550524F4D2D200025733B251C
:1031F200733B256400202020202532643A2530329A
:10320200643A253032642020202000202020202D06
:103212002D002020202020202020202020202020BF
:103222002020002573202534732025347320253374
:1032320064252500576169740050494420002532F5
:10324200643A2020002532643A2530326400257326
:103252003A25326420253473202025730025733AE1
:1032620025642025733A2533642025733A25326478
:103272000020253473202534732025347320002048
:103282002020202573202020202573202020202587
:103292007320002D2D20557067726164652046579A
:1032A200202D2D005072657373203C454E543E20F4
:1032B20062757474002D2D2D2D2D2D2D2D2D2D2D5E
:0632C2002D2D2D2D2D0025
:00000001FF
