:100000000C942A000C9447000C9447000C94EC09C3
:100010000C9447000C9447000C94400A0C94470041
:100020000C9447000C9447000C9447000C94470034
:100030000C9447000C94C9090C9447000C94470099
:100040000C9447000C9447000C9447000C94470014
:100050000C94470011241FBECFE5D4E0DEBFCDBF16
:1000600011E0A0E6B0E0E2EAFDE202C005900D92E8
:10007000AA35B107D9F722E0AAE5B1E001C01D9287
:10008000A431B207E1F70E94660A0C94CF160C94D3
:100090000000CF93DF9300D000D0CDB7DEB74C8304
:1000A0005B836A8389830E948B0589810E94A305F3
:1000B0006A81862F0E94A3055B81852F0E94A3057C
:1000C0004C81842F0E94A3050F900F900F900F90EA
:1000D000DF91CF910C9497051F93CF93DF931F92DD
:1000E000CDB7DEB7182F0E948B05812F0E94A30584
:1000F00080E00E94A3050E9497050E948B05812F36
:1001000081600E94A30581E00E94C505182F80E050
:100110000E94C50589830E949705898190E0912BF3
:100120000F90DF91CF911F910895CF93DF931F928E
:10013000CDB7DEB789830E947F05898180935D01F9
:1001400010925C0110925B0110925A010F90DF91A6
:10015000CF91089590935B0180935A010895843064
:1001600068F540915A0150915B01823051F0833023
:1001700059F0813019F04368516408C043685165F3
:1001800005C04368516602C043685167506861E02A
:1001900080915D010E9449008FE79EE30197F1F78E
:1001A00000C0000080915D010E946C0000905C0125
:1001B00002C0969587950A94E2F7089580E090E052
:1001C000089540915A0150915B014368516861E084
:1001D00080915D010E9449008FE79EE30197F1F74E
:1001E00000C0000080915D010E946C0020915C01C4
:1001F000022E02C0969587950A94E2F7222329F0F1
:10020000811528E0920708F0906F089540915A01F7
:1002100050915B014368516B61E080915D010E94E8
:1002200049008FE79EE30197F1F700C0000080913D
:100230005D010E946C0020915C01022E02C0969527
:1002400087950A94E2F7222329F0811528E0920786
:1002500008F0906F0895CF93DF93C0915A01D09129
:100260005B01813051F030F0823051F0833059F031
:10027000C4680BC0C468D06408C0C468D06505C039
:10028000C468D06602C0C468D067AB0100905C014E
:1002900002C0440F551F0A94E2F763E080915D01AC
:1002A0000E944900AE0161E080915D01DF91CF9134
:1002B0000C9449008FE79EE30197F1F700C000001E
:1002C00080915D010E946C0020915C01022E02C0B1
:1002D000969587950A94E2F7222329F0811528E064
:1002E000920708F0906F089520915E01223078F413
:1002F00090916001E92FF0E0EF59FE4F80832F5F6E
:1003000020935E0181E0890F8170809360010895E0
:10031000EF92FF920F931F93CF93DF9300D0CDB74F
:10032000DEB72FEF260F30E0A9014D595E4F7A015D
:10033000FA014081F901E959FE4F908190936601DD
:100340008901000F111FD801A459BE4F2D913C9176
:1003500030936B0120936A018823E1F0253F51E03F
:100360003507C8F52F5F3F4F30936B0120936A012B
:100370002630310580F140FD03C0416091E001C0AD
:1003800090E0253F314041F541FD26C04B7F426062
:1003900092E022C040FF0AC041FD08C042FF03C0F6
:1003A0004B7F95E004C010926601446090E042FFEC
:1003B00008C080916601833320F0109266014B7F64
:1003C00093E040FF02C041FD94E010926B01109257
:1003D0006A014C7F01C090E042FF07C08091660136
:1003E000833318F48F5F8093660180916601808368
:1003F000992351F0862F4A8399830E947401998131
:10040000892F0E9474014A81F801E459FE4F8091BE
:100410006A0190916B0191838083F70140830F9073
:100420000F90DF91CF911F910F91FF90EF90089562
:1004300020915E01222379F090915F01E92FF0E095
:10044000EF59FE4F8081215020935E019F5F917094
:1004500090935F01089580E0089510926D011092CD
:100460006C01109263011092670110926F0110925B
:100470006E01109264011092680110927101109245
:100480007001109265011092690110926101109241
:1004900062011092600110925F0110925E01D79884
:1004A000DF9AA798AF9AA698AE9A089589B38095D7
:1004B00061E0881F8827881F0E94880183B3809588
:1004C00062E0881F8827881F0E94880183B386FB0B
:1004D000882780F963E091E089270C9488014F9286
:1004E0005F926F927F928F929F92AF92BF92CF92C4
:1004F000DF92EF92FF920F931F93CF93DF93CDB7CD
:10050000DEB72A970FB6F894DEBF0FBECDBF5C01F1
:100510006A017B01822ECE010B96FE013196D50138
:100520001D921192E817F907D9F720E030E0A901F0
:10053000C701B6010E940E12882309F47CC080E036
:1005400090E061E070E0912C2AE08815990544F470
:10055000AB01249FB001259F700D11240196F5CFAA
:1005600026013701E89477F880E090E00E94AB1212
:100570009B01AC01C301B2010E9461130E947A1277
:10058000FE01319600E010E02AE030E0CB01B90135
:100590000E940A11805D8193161617062CF40F5FD6
:1005A0001F4F0A30110591F720E030E040E85FE38B
:1005B000C301B2010E940E1287FF0AC00F5F1F4FD6
:1005C000E1E0F0E0EC0FFD1FE00FF11F80E380831E
:1005D00020E030E0A901C701B6010E940E1287FF9A
:1005E0000AC00F5F1F4FE1E0F0E0EC0FFD1FE00FCE
:1005F000F11F8DE2808340916000F50180E090E082
:100600009801281939092F5F3F4F8217930711F47A
:1006100040830BC0A1E0B0E0AC0FBD1FA00FB11F25
:100620005C9150830150110920F1019631968B3075
:10063000910559F71EC0882051F02091600080E09C
:1006400090E0912CEFEF8E1A9E0A30E30AC080E30F
:10065000F50180830EC0F5018130910531F42183CD
:10066000019688169906BCF704C0E80FF91F30837D
:10067000F7CF2A960FB6F894DEBF0FBECDBFDF913D
:10068000CF911F910F91FF90EF90DF90CF90BF908F
:10069000AF909F908F907F906F905F904F90089554
:1006A0000F93009360000E946F028EE280936000BF
:1006B0000F9108954F925F926F927F92AF92BF9287
:1006C000CF92DF92EF92FF920F931F93CF93DF931E
:1006D000CDB7DEB729013A01621B730B840B950B72
:1006E00029893A894B895C892A193B094C095D099A
:1006F000298B3A8B4B8B5C8B9B01AC0169897A8986
:100700008B899C890E94DA10E418F50806091709FC
:10071000A80197010E941E112A0D3B1D4C1D5D1D55
:10072000CA01B901DF91CF911F910F91FF90EF9016
:10073000DF90CF90BF90AF907F906F905F904F9081
:1007400008954F925F926F927F92AF92BF92CF9235
:10075000DF92EF92FF920F931F93CF93DF93CDB76A
:10076000DEB728970FB6F894DEBF0FBECDBF2901C4
:100770003A01ED82FE820F8318870E94A9116983D6
:100780007A838B839C83A6019501698D7A8D8B8DED
:100790009C8D0E94A9119B01AC0169817A818B819A
:1007A0009C810E94611369837A838B839C83A3015C
:1007B0009201C801B7010E94A9119B01AC01698196
:1007C0007A818B819C810E941212A60195010E9460
:1007D000AA1128960FB6F894DEBF0FBECDBFDF91E9
:1007E000CF911F910F91FF90EF90DF90CF90BF902E
:1007F000AF907F906F905F904F900895EF92FF922F
:100800000F931F93621773078407950744F0E6164A
:10081000F706080719072CF4C801B70102C0CA017E
:10082000B9011F910F91FF90EF9008958F929F92C1
:10083000AF92BF92CF92DF92EF92FF920F931F93EE
:10084000CF93DF936B01D82FC92F49015A010E9422
:100850000E1287FD0DC09701A801B6018D2F9C2FA8
:100860000E945D1318163CF46701D02FC12F03C0FE
:100870006401DA2DCB2DB6018D2F9C2FDF91CF9106
:100880001F910F91FF90EF90DF90CF90BF90AF90AE
:100890009F908F900895982F92959F708F702AE067
:1008A000929F800D112408956AE00E94EA1020E1D1
:1008B000829F900D1124892F08951F93CF93DF936A
:1008C0001F92CDB7DEB7182F0E948B0580ED0E94D6
:1008D000A305812F0E94A3050E948B0581ED0E9434
:1008E000A30580E00E94C50589830E949705898140
:1008F0000F90DF91CF911F9108951F93CF93DF93B6
:100900001F92CDB7DEB7182F69830E948B0580ED4B
:100910000E94A305812F0E94A3056981862F0E9452
:10092000A3050F90DF91CF911F910C949705CF9362
:10093000C82FC3706111C0614111C0680E948B054E
:1009400080ED0E94A30587E00E94A3058C2F0E94E2
:10095000A305CF910C949705EF92FF920F931F93ED
:10096000CF93DF93EC017B018A010E948B0580ED20
:100970000E94A30580E00E94A3050E948B0581EDE3
:100980000E94A30581E00E94C5050E944B04F80166
:10099000808381E00E94C5050E944B04F70180839B
:1009A00080E00E94C5050E944B048883DF91CF91AF
:1009B0001F910F91FF90EF900C9497051F93CF9389
:1009C000DF9300D0CDB7DEB7182F49836A830E942A
:1009D0008B0580ED0E94A30580E00E94A30549815C
:1009E000842F0E9454040E94A3056A81862F0E94CE
:1009F00054040E94A305812F0E9454040E94A30561
:100A00000F900F90DF91CF911F910C949705EF926B
:100A1000FF920F931F93CF93DF93EC017B018A0129
:100A20000E948B0580ED0E94A30584E00E94A3052F
:100A30000E948B0581ED0E94A30581E00E94C505FF
:100A40000E944B04888381E00E94C5050E944B04EC
:100A5000F701808380E00E94C5050E944B04F801E5
:100A60008083DF91CF911F910F91FF90EF900C94B5
:100A700097051F93CF93DF9300D0CDB7DEB7182F24
:100A80004A8369830E948B0580ED0E94A30584E060
:100A90000E94A305812F0E9454040E94A30569812E
:100AA000862F0E9454040E94A3054A81842F0E942D
:100AB00054040E94A3050F900F90DF91CF911F91D6
:100AC0000C94970500000000000000000000019752
:100AD0000097C1F70895939A81E090E00C94620525
:100AE0008C9A81E090E00C9462058C9881E090E013
:100AF0000C946205939881E090E00C9462059498C0
:100B00009398939894988B9A8C980E946B050E9466
:100B100070050C9475050E946B050E9475050E9476
:100B20006B050E9470050E947A050C9475050E9461
:100B30007A050E9470050E946B050E9470050E9454
:100B40006B050C947505CF93DF93D82FC8E00E94F6
:100B50007A05D7FF03C00E94750502C00E94700588
:100B60000E946B05DD0FC15091F70E947A050E942B
:100B700075050E946B05C0B30E947A05C295C170CD
:100B800081E08C27DF91CF9108951F93CF93DF935E
:100B9000182F0E947A050E947505D8E0C0E0CC0F9E
:100BA0000E946B058499CF5F0E947A05D150B9F7F6
:100BB00011110E9470050E946B050E947A058C2F0E
:100BC000DF91CF911F9108951F93CF93DF931F92D1
:100BD000CDB7DEB7182F69830E948B05812F0E9445
:100BE000A3056981862F0E94A3050E948B05812F92
:100BF00081600E94A30580E00E94C50589830E9450
:100C0000970589810F90DF91CF911F910895CF9320
:100C1000DF9300D01F92CDB7DEB74B836A83898301
:100C20000E948B0589810E94A3056A81862F0E94FC
:100C3000A3054B81842F0E94A3050F900F900F9066
:100C4000DF91CF910C949705982F907F84FF02C07D
:100C5000DB9A01C0DB9885FF02C0DC9A01C0DC98FA
:100C600086FF02C0DD9A01C0DD9897FF02C0DE9AC0
:100C700001C0DE98DA9A95E09A95F1F70000DA98CB
:100C80008295982F907F84FF02C0DB9A01C0DB9889
:100C900085FF02C0DC9A01C0DC9886FF02C0DD9AA5
:100CA00001C0DD9897FF02C0DE9A01C0DE98DA9A93
:100CB00085E08A95F1F70000DA980895D398D498E2
:100CC000D598D698DB9ADC9ADD9ADE9AD99AD8988C
:100CD000DA9A95E09A95F1F70000CB9B02C080610B
:100CE00001C08F7ECC9B02C0806201C08F7DCD9BF6
:100CF00002C0806401C08F7BCE9B02C0806801C0AF
:100D00008F77DA98DA9A95E09A95F1F7000099B31F
:100D100099B399B399B3DA9887FDDACFD998D39A72
:100D2000D49AD59AD69A08959AE69A95F1F700C082
:100D3000D898982F907F84FF02C0DB9A01C0DB987F
:100D400085FF02C0DC9A01C0DC9886FF02C0DD9AF4
:100D500001C0DD9897FF02C0DE9A01C0DE98DA9AE2
:100D600085E08A95F1F70000DA980895CF93DF9334
:100D70001F92CDB7DEB789830E945E06D89889811D
:100D80000F90DF91CF910C942406CF93DF931F92A5
:100D9000CDB7DEB789830E945E06D89A89810F900D
:100DA000DF91CF910C942406D39AD49AD59AD69AEF
:100DB000D09AD19AD29A2FEF89EF90E021508040BB
:100DC0009040E1F700C0000080E30E9494068FE1AC
:100DD0009EE40197F1F700C0000080E30E949406B2
:100DE0008FE99FE00197F1F700C0000080E30E94C7
:100DF000940688E20E94940688E20E94B6068CE07F
:100E00000E94B60681E00E94B6068FE99FE0019736
:100E1000F1F700C0000086E00C94B606CF93DF9394
:100E2000EC018991882319F00E94C506FACFDF9161
:100E3000CF910895CF93DF93EC018881882331F01F
:100E4000FE01849121960E94C506F7CFDF91CF91D4
:100E500008950F931F93CF93DF93EC01677028E001
:100E6000629FC001112480640E94B6068E01085F53
:100E70001F4FFE01849121960E94C506C017D1071D
:100E8000C1F7DF91CF911F910F910895853610F42E
:100E900080938501809185010895AF92BF92CF9292
:100EA000DF92EF92FF920F931F93CF93DF93D82F90
:100EB000C92FA0917A01B0917B01282F990F990B2E
:100EC0003C2F492F592F692F792F892FA0907C0112
:100ED000B0907D01C0907E01D0907F01E0908001B4
:100EE000F090810100918201109183010E946611AE
:100EF000FD01EE0FFF1FEE51FE4FB180A0801B2DB4
:100F0000110F110BC12ED12EE12EF12E012F0E94B7
:100F10006F1120937C0130937D0140937E015093AB
:100F20007F0160938001709381018093820190938F
:100F300083011196B0937B01A0937A01D083C18382
:100F4000509721F410927B0110927A0104E00E94E4
:100F50004811C901DF91CF911F910F91FF90EF9040
:100F6000DF90CF90BF90AF900895F89447E350E0A2
:100F700060E070E08BEA91E00E94D11578940895CA
:100F80008AE08093AB012FE530E03093B1012093EC
:100F9000B00180EE91E09093B3018093B2018EE1B5
:100FA00090E09093B5018093B40142E350E05093F8
:100FB000B7014093B6013093C7012093C60141E0C9
:100FC00050E05093B9014093B80140EC53E0509386
:100FD000C9014093C8014AE050E05093BB014093DF
:100FE000BA019093CB018093CA011092BD01109277
:100FF000BC0147E150E05093CD014093CC011092E9
:10100000BF011092BE014BE350E05093CF014093DB
:10101000CE011092C1011092C0015093D1014093B2
:10102000D00148E250E05093C3014093C201309395
:10103000D3012093D2011092C5011092C40123E67E
:1010400030E03093D5012093D40121E430E0309397
:10105000AD012093AC019093AF018093AE0180E08D
:1010600090E0A0E2B1E48093D6019093D701A093E1
:10107000D801B093D90180E090E0A0E0BFE3809375
:10108000DA019093DB01A093DC01B093DD0180E0F5
:1010900090E0A0E0B0E48093DE019093DF01A093A4
:1010A000E001B093E1010C94B5070E94180280930F
:1010B0009A01882321F00E94180280930202089569
:1010C000B99AC1988E9A96988D9A9598A09AA89850
:1010D00008958F929F92AF92BF92CF92DF92EF923C
:1010E000FF92CF93DF934B015C01EA01622F70E026
:1010F00080E090E00E94AB1220E030E040E551E457
:101100000E94AA112FE23DED44E95FE30E946113C2
:101110006B017C016091B0017091B10180E090E0C1
:101120000E94AB12A50194010E94A9119B01AC0180
:10113000C701B6010E9461136B017C01BE0180E012
:1011400090E00E94AB1220E030E040E752E40E94C1
:10115000121228E431EE4AE75FE30E9461139B011B
:10116000AC01C701B6010E94121220E030E84BE347
:1011700055E40E94121220E030E048EC52E40E9454
:1011800061130E947F12653671058105910520F07B
:1011900064E670E080E090E0862FDF91CF91FF90D1
:1011A000EF90DF90CF90BF90AF909F908F90089579
:1011B0001FBC84E08EBD1DBC1CBC81E19AE79BBDB9
:1011C0008ABD19BC18BC17BC16BC089584E085BD47
:1011D00012BC14BC8CE783BD08954F925F926F924E
:1011E0007F92AF92BF92CF92DF92EF92FF920F93D6
:1011F0001F93CF93DF93CDB7DEB728970FB6F89440
:10120000DEBF0FBECDBF0E94A91169837A838B8395
:101210009C839B01AC01C801B7010E946113E12CC2
:10122000F12C08EC12E420E030E048EC52EC0E9493
:1012300016046D837E838F83988720E030E0A901B8
:10124000C601B5010E945D131816ACF4A601950104
:1012500069817A818B819C810E94121220E030E0AA
:10126000A9010E94AA1120E030E0A9010E94160401
:101270002B013C0103C0412C512C320120917601FD
:1012800030917701409178015091790169817A819B
:101290008B819C810E94A9119B01AC01698D7A8D83
:1012A0008B8D9C8D0E946113E12CF12C08EC12E4D3
:1012B00020E030E048EC52EC0E9416046B017C0107
:1012C00089819A81AB81BC8180937601909377016B
:1012D000A0937801B0937901A30192016D817E8181
:1012E0008F8198850E94AA11A70196010E94AA11D8
:1012F0000E947A12882777FD8095982F14E6E12EB8
:10130000F12C00E010E020E030E0A9010E94FE0393
:10131000862F28960FB6F894DEBF0FBECDBFDF91A3
:10132000CF911F910F91FF90EF90DF90CF90BF90E2
:10133000AF907F906F905F904F90089590BD89B966
:1013400088ED8AB986E880BD08950F931F93CF93E7
:10135000DF93EC0109900020E9F72197C81BD90B16
:101360008E011127A801BC018BE991E00E94C413F2
:10137000CE5FC0938401F801E556FE4F8DE0808377
:101380008AE0818389E08CB9DF91CF911F910F9121
:1013900008951F920F920FB60F9211248F93EF931F
:1013A000FF93E091750180918401E81758F4F0E013
:1013B000E556FE4F80818CB9809175018F5F8093D7
:1013C000750102C010927501FF91EF918F910F90FE
:1013D0000FBE0F901F9018951F920F920FB60F928D
:1013E00011242F933F934F935F936F937F938F932A
:1013F0009F93AF93BF93EF93FF9314BCA8958091F5
:1014000074018F5F809374018A30A1F4109274018B
:101410009091850180917301891710F0C19801C0E6
:10142000C19A809173018F5F80937301843611F4A8
:1014300010927301809172018F5F843619F080934E
:10144000720107C010927201809103028160809343
:10145000030285B391E0892785BB0E945602FF9164
:10146000EF91BF91AF919F918F917F916F915F911C
:101470004F913F912F910F900FBE0F901F90189595
:101480001F920F920FB60F9211242F938F939F9359
:101490001DBC1CBC8091860190918701009749F08A
:1014A0002091030221FF05C001979093870180934B
:1014B0008601809103028062809303029F918F9145
:1014C0002F910F900FBE0F901F901895CF93DF9321
:1014D000CDB7DEB72D970FB6F894DEBF0FBECDBFE8
:1014E00080E90E94950080E096E00E94AA0083E3D4
:1014F00090E00E949E090E9460080E942D020E94B6
:10150000D40647E350E060E070E08BEA91E00E948F
:10151000C1158091AB018F3F11F09F991DC080E8EC
:101520000E94B60689E790E00E940E079F9BFECFBF
:101530000E94C0072FEF34E38CE021503040804000
:10154000E1F700C0000081E00E94B606AFE9BFE00D
:101550001197F1F700C000000E94D8080E94E60829
:1015600040E061E080E00E949704AE014D5F5F4F74
:10157000BE016E5F7F4FCE0101960E94AC0480E9F0
:1015800089BFA8952EE088E190E00FB6F894A89561
:1015900081BD0FBE21BD7894BFEFB88719861D822B
:1015A000E1E0EC83FFEFFF832FEF2E83812C412CB2
:1015B000512C320134E0232E32E0332E0E945508A4
:1015C0008091030281FB992490F882FB992790F97E
:1015D000990E83FB992790F9990E84FF05C08F7EA1
:1015E000809303020E94B5078091030280FF38C1F7
:1015F0008E7F8093030286FD0AC0AE014D5F5F4F70
:10160000BE016E5F7F4FCE0101960E94AC048091B7
:10161000030281FFA5C00091AC011091AD013D8195
:10162000313051F060F0323009F5412C512C28EC6A
:10163000622E21E4722E1AC082E08D8311C0B8019F
:10164000882777FD8095982F0E94AD1220E030E02A
:1016500040E251E40E940E12181614F092E09D83AD
:10166000412C512C90E2692E91E4792EA090DA0160
:10167000B090DB01C090DC01D090DD018091D601FB
:101680009091D701A091D801B091D9018A879B8709
:10169000AC87BD87B801882777FD8095982F0E9479
:1016A000AD122091E1012F932091E0012F93209121
:1016B000DF012F932091DE012F93EA84FB840C85B8
:1016C0001D85A30192010E94ED08809385010F9072
:1016D0000F900F900F909985911113C06091AC01FC
:1016E0007091AD01882777FD8095982F0E94AD12EB
:1016F00020E030E048EC51E40E940E12181624F469
:101700002FC0A985A13061F5809186019091870154
:10171000892B21F510928501809185012091AE01E0
:101720003091AF014CE3429FC001439F900D1124C3
:10173000909387018093860181E00E94B606EFE9CD
:10174000FFE03197F1F700C00000809103028D7F28
:10175000806180930302F1E0F98702C021E02987CC
:101760001091030213FF3FC03D81313021F030F072
:101770003230F1F038C082E08D8313C06091B00147
:101780007091B10180E090E00E94AB12A1E0AD83C6
:1017900020E030E040E251E40E940E1218160CF4F2
:1017A0001D82412C512C80E2682E81E4782E1BC0D2
:1017B0006091B0017091B10180E090E00E94AB12A5
:1017C00020E030E048EC51E40E940E1218162CF094
:1017D000177F1093030210928501412C512C08ECC5
:1017E000602E01E4702E8091030285FF39C08F7D49
:1017F00080930302E4E0F2E01192B2E0E431FB07EF
:10180000D9F721E040E050E060E271E488E891E03F
:101810000E946F0221E040E050E068EC71E48EE845
:1018200091E00E946F02809185011F928F938EE854
:1018300091E09F938F9388E891E09F938F93AAE81C
:10184000B0E0BF93AF933F922F920E94CD1384E0FC
:1018500092E00E94A5090FB6F894DEBF0FBECDBF7F
:101860008091030286FD2BC0911029C080919A01BE
:10187000833029F580910202823009F53C813F5F77
:101880003C83373089F0323089F42091AE013091B9
:10189000AF014CE3429FC001439F900D11249093F0
:1018A00087018093860102C081E08C8381E00E94E1
:1018B000B606AFE9BFE01197F1F700C000008091D4
:1018C000030286FD2BC0911029C080919A018130BE
:1018D00029F580910202823009F5BC81B150BC83A8
:1018E000BB2389F0B23089F42091AE013091AF0171
:1018F0004CE3429FC001439F900D112490938701B8
:101900008093860102C0E6E0EC8381E00E94B60687
:101910008FE99FE00197F1F700C0000010919A0154
:101920001230E1F580910202833061F59C81809153
:101930000302933049F09430D1F09230D1F48260B8
:1019400080930302198611C088608093030240913E
:10195000B2015091B3012091B40160E070E080E2E7
:1019600091E40E946908809385011D8206C084600D
:1019700002C0897F877F8093030280910302806188
:101980008093030280910202853041F4809103022A
:1019900010928501817F806180930302AC81A33026
:1019A00009F4D8C130F4A13071F0A23009F4CCC0F0
:1019B00005CEBC81B53009F4FAC208F4A4C2B63031
:1019C00009F4D0C3FBCD2B81822F992787FD9095F9
:1019D0009F932F932A81822F992787FD90959F931C
:1019E0002F932981822F992787FD90959F932F937D
:1019F00083E990E09F938F933F922F920E94CD13A3
:101A000080E80E94B60684E092E00E940E070FB6BE
:101A1000F894DEBF0FBECDBF80919A01823071F580
:101A200080910202823051F5F885FF5FF88780913E
:101A30000302F33094F4FF3F81F08064809303024B
:101A40008F2F880F8F0F8F70805C80680E94B60682
:101A500089EA90E00E940E0711C08F7B80930302F9
:101A600080EC0E94B60680EB90E00E940E074B814E
:101A70006A8189810E94DE042FEF2887809103020A
:101A800086FF9CCD80919A01833079F58091020286
:101A9000833009F093CD3885832F992787FD909562
:101AA000E1E0F0E0EC0FFD1FE80FF91F40814F5F10
:101AB00040839C012D5F3F4F552747FD5095DC012A
:101AC000AA0FBB1FAF53BE4F1B968D919C911C97C5
:101AD000841795070CF072CDD901AA0FBB1FA5552D
:101AE000BE4F1B968C91808369CD813009F066CD05
:101AF00080910202833009F061CD8885A82FBB2731
:101B0000A7FDB09541E050E04C0F5D1F4A0F5B1FF1
:101B1000FA01208121502083332727FD3095CD0104
:101B2000880F991F8F549E4FFC0183859485281739
:101B300039070CF043CDAA0FBB1FAF53BE4F1B9606
:101B40008C91DA018C933ACD123041F580910202EA
:101B5000823021F5911022C0BF81BF5FBF83809189
:101B60000302B23014F4BF3FA9F48F7B80618093ED
:101B700003022091AE013091AF014CE3429FC001BE
:101B8000439F900D11249093870180938601EFEF7E
:101B9000EF8348C080648093030244C0FF81FF3F0D
:101BA00009F440C091103EC01330E1F4809102026C
:101BB0008330C1F5AF2FBB27A7FDB095FD01EE0F18
:101BC000FF1FE555FE4F81819281AA0FBB1FA953CC
:101BD000BE4F1B962D913C911C978217930714F5CD
:101BE00001961EC01130F1F4809102028330D1F4CD
:101BF0002F81A22FBB27A7FDB095FD01EE0FFF1F80
:101C0000E555FE4F81819281AA0FBB1FA954BE4F9B
:101C10001B962D913C911C97281739071CF40197AE
:101C20009283818321E040E050E060E271E488E843
:101C300091E00E946F0221E040E050E068EC71E426
:101C40008EE891E00E946F0220918501809103024D
:101C500081FD03C081E690E002C083E690E01F9220
:101C60002F930EE811E01F930F9328E831E03F9384
:101C70002F939F938F93A1ECB0E0BF93AF933F92CC
:101C80002F920E94CD1380E80E94B60684E092E075
:101C90000E940E0780EC0E94B60621E0B301A2016B
:101CA000C8010E946F020FB6F894DEBF0FBECDBF11
:101CB0003F813130A9F48091AF018F938091AE01C3
:101CC0008F9382ED90E09F938F931F930F930E94C9
:101CD000CD130F900F900F900F900F900F9019C091
:101CE00080918601909187016CE370E00E94F6106C
:101CF0009F938F937F936F9389ED90E09F938F9342
:101D00001F930F930E94CD130FB6F894DEBF0FBE42
:101D1000CDBF4091AC015091AD019F81911103C0A5
:101D200085E690E002C087E491E02EE831E03F9341
:101D30002F9328E831E03F932F935F934F939F9326
:101D40008F9382EE90E09F938F933F922F920E9409
:101D5000CD13CFC021E040E050E060E271E488E8BC
:101D600091E00E946F0221E040E050E068EC71E4F5
:101D70008EE891E00E946F0220918501809103021C
:101D800083FD03C087E491E002C085E690E01F92E6
:101D90002F932EE831E03F932F9328E831E03F93D3
:101DA0002F939F938F93A1ECB0E0BF93AF933F929B
:101DB0002F920E94CD1380E80E94B60684E092E044
:101DC0000E940E0780919A010FB6F894DEBF0FBEF5
:101DD000CDBF8230D1F4909102029230B1F49110D3
:101DE00014C03E813F5F3E8380910302333014F480
:101DF0003F3F39F48F7B8061809303028FEF8E83A6
:101E00003DC080648093030239C09E819F3FB1F141
:101E1000911034C08330E1F480910202833071F577
:101E2000A92FBB27A7FDB095FD01EE0FFF1FE555BC
:101E3000FE4F85819681AA0FBB1FA554BE4F1B96EE
:101E40002D913C911C9782179307C0F4019614C002
:101E50008130A1F480910202833081F4AE81EA2FB7
:101E6000EE0FFF0BE555FE4F858196812385348566
:101E70002817390718F4019796838583A091B40138
:101E8000B091B501EE81E23019F447E650E002C0AE
:101E900049E650E0E091B201F091B3012E8121308A
:101EA00019F42BE630E002C02EE630E06091B0017C
:101EB0007091B1018E81811103C085E690E002C06E
:101EC00087E491E0BF93AF935F934F93FF93EF93BA
:101ED0003F932F937F936F939F938F93A1EFB0E0E6
:101EE000BF93AF933F922F920E94CD1380EC0E943C
:101EF000B60684E092E00E940E070FB6F894DEBFAB
:101F00000FBECDBF5BCB8091030282FF1DC013309B
:101F100061F4809102028330B9F4809185018436A6
:101F200098F4809185018F5F0DC0113069F4809124
:101F30000202833049F480918501882329F0809141
:101F4000850181508093850121E040E050E060E20E
:101F500071E488E891E00E946F0221E040E050E0E7
:101F600068EC71E48EE891E00E946F022091850197
:101F70008091030282FD03C081E790E002C083E705
:101F800090E01F922F932EE831E03F932F9328E8A3
:101F900031E03F932F939F938F93A1ECB0E0BF93D9
:101FA000AF933F922F920E94CD1380E8A0CF1230C2
:101FB000A9F480910202823089F4809103029DEF9E
:101FC000980D9D3F30F48F7B806180930302812CBC
:101FD00058C0839480648093030253C0882009F41E
:101FE00050C0133029F580910202833009F049C0B6
:101FF00034E0839E8001112409551E4FD8019B9621
:10200000CD90DD90ED90FC909E9720E030E040EA8E
:1020100051E4C701B6010E940E1287FF32C02DECB9
:102020003CEC4CEC5DE3C701B6010E94AA1124C050
:10203000113039F580910202833019F5F4E08F9E5A
:102040008001112409551E4FD8019B96CD90DD903B
:10205000ED90FC909E9720E030E0A901C701B60109
:102060000E945D1318166CF42DEC3CEC4CEC5DE317
:10207000C701B6010E94A911F80163A774A785A73B
:1020800096A74091D6015091D7016091D8017091E7
:10209000D90121E088E891E00E946F024091DA01C5
:1020A0005091DB016091DC017091DD0121E08EE84F
:1020B00091E00E946F024091DE015091DF0160913A
:1020C000E0017091E10121E084E991E00E946F025A
:1020D00084E991E09F938F938EE891E09F938F9393
:1020E00088E891E09F938F93A5E0B1E0BF93AF9311
:1020F0003F922F920E94CD1380E80E94B60684E0A2
:1021000092E00E940E070FB6F894DEBF0FBECDBF5F
:1021100033E0831669F082E0881679F091E02CE6CE
:1021200030E041E950E089120CC083E690E00BC03A
:102130002CE630E047E750E004C025E730E041E915
:1021400050E081E690E05F934F933F932F939F93EE
:102150008F9383E191E09F938F933F922F920E9400
:10216000CD13C4CE80E80E94B60687E291E00E94BB
:102170000E0780EC0E94B60688E391E00E940E07ED
:1021800080919A01823009F019CA8091020282304E
:1021900009F014CA80E80E94B60687E291E00E9426
:1021A0000E0780EC0E94B60689E491E00E940E07BB
:1021B000F894FFCFDB018F939F930E943D11BF9155
:1021C000AF91A29F800D911DA39F900DB29F900D86
:1021D00011240895991B79E004C0991F961708F0FF
:1021E000961B881F7A95C9F780950895AA1BBB1B7B
:1021F00051E107C0AA1FBB1FA617B70710F0A61B07
:10220000B70B881F991F5A95A9F780959095BC0127
:10221000CD01089597FB072E16F4009407D077FDA3
:1022200009D00E94F61007FC05D03EF490958195E8
:102230009F4F0895709561957F4F0895052E97FBE8
:102240001EF400940E94351157FD07D00E947811AA
:1022500007FC03D04EF40C94351150954095309501
:1022600021953F4F4F4F5F4F089590958095709502
:1022700061957F4F8F4F9F4F08950E949A11A59FA0
:10228000900DB49F900DA49F800D911D1124089571
:1022900097FB10F8169400080F93083098F0085038
:1022A000232F342F452F562F672F782F892F902DCE
:1022B000F4CF0594979587957795679557954795AA
:1022C000379527950A95AAF70F9108952A0D3B1D7A
:1022D0004C1D5D1D6E1D7F1D801F911F08952A19C5
:1022E0003B094C095D096E097F09800B910B08952C
:1022F000A1E21A2EAA1BBB1BFD010DC0AA1FBB1F0A
:10230000EE1FFF1FA217B307E407F50720F0A21B7B
:10231000B30BE40BF50B661F771F881F991F1A94E8
:1023200069F760957095809590959B01AC01BD0112
:10233000CF010895A29FB001B39FC001A39F700D6C
:10234000811D1124911DB29F700D811D1124911DBD
:1023500008955058BB27AA270ED075C166D130F01A
:102360006BD120F031F49F3F11F41EF45BC10EF4E9
:10237000E095E7FB51C1E92F77D180F3BA176207E7
:1023800073078407950718F071F49EF58FC10EF45A
:10239000E0950B2EBA2FA02D0B01B90190010C0175
:1023A000CA01A0011124FF27591B99F0593F50F48D
:1023B000503E68F11A16F040A22F232F342F4427E5
:1023C000585FF3CF469537952795A795F0405395DD
:1023D000C9F77EF41F16BA0B620B730B840BBAF0AD
:1023E0009150A1F0FF0FBB1F661F771F881FC2F718
:1023F0000EC0BA0F621F731F841F48F4879577952C
:102400006795B795F7959E3F08F0B3CF9395880FE2
:1024100008F09927EE0F979587950895D9D008F47D
:1024200081E008950CD00FC107D140F0FED030F00C
:1024300021F45F3F19F0F0C0511139C1F3C014D13C
:1024400098F39923C9F35523B1F3951B550BBB277B
:10245000AA2762177307840738F09F5F5F4F220F28
:10246000331F441FAA1FA9F333D00E2E3AF0E0E821
:1024700030D091505040E695001CCAF729D0FE2F6D
:1024800027D0660F771F881FBB1F261737074807FF
:10249000AB07B0E809F0BB0B802DBF01FF279358B5
:1024A0005F4F2AF09E3F510568F0B6C000C15F3F04
:1024B000ECF3983EDCF3869577956795B795F7959D
:1024C0009F5FC9F7880F911D9695879597F9089595
:1024D000E1E0660F771F881FBB1F62177307840731
:1024E000BA0720F0621B730B840BBA0BEE1F88F740
:1024F000E095089504D06894B111D9C00895BCD076
:1025000088F09F5790F0B92F9927B751A0F0D1F0DC
:10251000660F771F881F991F1AF0BA95C9F712C066
:10252000B13081F0C3D0B1E00895C0C0672F782FDB
:102530008827B85F39F0B93FCCF3869577956795D2
:10254000B395D9F73EF490958095709561957F4F3E
:102550008F4F9F4F0895E89409C097FB3EF49095E4
:102560008095709561957F4F8F4F9F4F9923A9F06C
:10257000F92F96E9BB279395F695879577956795FB
:10258000B795F111F8CFFAF4BB0F11F460FF1BC03F
:102590006F5F7F4F8F4F9F4F16C0882311F096E9D2
:1025A00011C0772321F09EE8872F762F05C0662380
:1025B00071F096E8862F70E060E02AF09A95660F39
:1025C000771F881FDAF7880F9695879597F90895F2
:1025D000990F0008550FAA0BE0E8FEEF1616170634
:1025E000E807F907C0F012161306E407F50798F09C
:1025F000621B730B840B950B39F40A2661F0232BB5
:10260000242B252B21F408950A2609F4A140A69530
:102610008FEF811D811D089597F99F6780E870E015
:1026200060E008959FEF80EC089500240A94161648
:10263000170618060906089500240A9412161306B0
:10264000140605060895092E0394000C11F488233E
:1026500052F0BB0F40F4BF2B11F460FF04C06F5F5A
:102660007F4F8F4F9F4F089557FD9058440F551F30
:1026700059F05F3F71F04795880F97FB991F61F004
:102680009F3F79F087950895121613061406551F7B
:10269000F2CF4695F1DF08C0161617061806991FE7
:1026A000F1CF86957105610508940895E894BB27DC
:1026B00066277727CB0197F908958ADF08F48FEF13
:1026C00008950BD0C0CFB1DF28F0B6DF18F0952306
:1026D00009F0A2CFA7CF1124EACFC6DFA0F3959FC0
:1026E000D1F3950F50E0551F629FF001729FBB27F9
:1026F000F00DB11D639FAA27F00DB11DAA1F649FA5
:102700006627B00DA11D661F829F2227B00DA11D57
:10271000621F739FB00DA11D621F839FA00D611DDD
:10272000221F749F3327A00D611D231F849F600DFE
:10273000211D822F762F6A2F11249F5750408AF037
:10274000E1F088234AF0EE0FFF1FBB1F661F771FC3
:10275000881F91505040A9F79E3F510570F05CCF03
:10276000A6CF5F3FECF3983EDCF3869577956795AF
:10277000B795F795E7959F5FC1F7FE2B880F911DE1
:102780009695879597F90895FB01DC0102C00190A9
:102790000D9241505040D8F70895AEE0B0E0E3ED1F
:1027A000F3E10C94A6160D891E8986E08C831A83AA
:1027B00009838FEF9FE79E838D83AE01475E5F4F56
:1027C0006F89788DCE0101960E94EF13EF81F88515
:1027D000E00FF11F10822E96E4E00C94C216ACE0DC
:1027E000B0E0E5EFF3E10C9498167C016B018A01EF
:1027F000FC0117821682838181FFBDC1CE01019643
:102800004C01F7019381F60193FD859193FF81912E
:102810006F01882309F4ABC1853239F493FD8591AA
:1028200093FF81916F01853229F4B70190E00E94F6
:102830000816E7CF512C312C20E02032A0F48B3247
:1028400069F030F4803259F0833269F420612CC091
:102850008D3239F0803339F4216026C02260246043
:1028600023C0286021C027FD27C030ED380F3A3043
:1028700078F426FF06C0FAE05F9E300D1124532E37
:1028800013C08AE0389E300D1124332E20620CC014
:102890008E3221F426FD6BC1206406C08C3611F403
:1028A000206802C0883641F4F60193FD859193FFBC
:1028B00081916F018111C1CF982F9F7D95549330E5
:1028C00028F40C5F1F4FFFE3F9830DC0833631F00E
:1028D000833771F0833509F05BC022C0F801808135
:1028E00089830E5F1F4F44244394512C540115C01B
:1028F0003801F2E06F0E711CF801A080B18026FF54
:1029000003C0652D70E002C06FEF7FEFC5012C871B
:102910000E94FD152C0183012C852F77222E17C0D4
:102920003801F2E06F0E711CF801A080B18026FF23
:1029300003C0652D70E002C06FEF7FEFC5012C87EB
:102940000E94F2152C012C852068222E830123FC85
:102950001BC0832D90E048165906B0F4B70180E201
:1029600090E00E9408163A94F4CFF50127FC859177
:1029700027FE81915F01B70190E00E940816311097
:102980003A94F1E04F1A51084114510471F7E5C02F
:10299000843611F0893639F5F80127FF07C06081C8
:1029A0007181828193810C5F1F4F08C060817181AA
:1029B000882777FD8095982F0E5F1F4F2F76B22EB8
:1029C00097FF09C090958095709561957F4F8F4FC7
:1029D0009F4F2068B22E2AE030E0A4010E943A16F0
:1029E000A82EA81844C0853729F42F7EB22E2AE0DD
:1029F00030E025C0F22FF97FBF2E8F36C1F018F4DA
:102A0000883579F0B4C0803719F0883721F0AFC02D
:102A10002F2F2061B22EB4FE0DC08B2D8460B82EF6
:102A200009C024FF0AC09F2F9660B92E06C028E077
:102A300030E005C020E130E002C020E132E0F801E2
:102A4000B7FE07C060817181828193810C5F1F4F47
:102A500006C06081718180E090E00E5F1F4FA4018D
:102A60000E943A16A82EA818FB2DFF77BF2EB6FE9F
:102A70000BC02B2D2E7FA51450F4B4FE0AC0B2FC5F
:102A800008C02B2D2E7E05C07A2C2B2D03C07A2C4E
:102A900001C0752C24FF0DC0FE01EA0DF11D8081DF
:102AA000803311F4297E09C022FF06C07394739409
:102AB00004C0822F867809F0739423FD13C020FF91
:102AC00006C05A2C731418F4530C5718732C731433
:102AD00068F4B70180E290E02C870E940816739496
:102AE0002C85F5CF731410F4371801C0312C24FF56
:102AF00012C0B70180E390E02C870E9408162C8555
:102B000022FF17C021FF03C088E590E002C088E7DC
:102B100090E0B7010CC0822F867859F021FD02C0E9
:102B200080E201C08BE227FD8DE2B70190E00E94B8
:102B30000816A51438F4B70180E390E00E94081647
:102B40005A94F7CFAA94F401EA0DF11D8081B701E0
:102B500090E00E940816A110F5CF332009F451CE61
:102B6000B70180E290E00E9408163A94F6CFF70190
:102B70008681978102C08FEF9FEF2C96E2E10C9443
:102B8000B416DC01CB01FC01E199FECF06C0FFBB0E
:102B9000EEBBE09A31960DB20D9241505040B8F71D
:102BA0000895DC01A40FB51F4150504048F0CB01FF
:102BB000840F951F2E910E94E21541505040D0F78E
:102BC0000895262FE199FECF9FBB8EBBE09A019717
:102BD0000DB2021631F02DBB0FB6F894E29AE19ACD
:102BE0000FBE0895FC010590615070400110D8F7A8
:102BF000809590958E0F9F1F0895FC016150704045
:102C000001900110D8F7809590958E0F9F1F089521
:102C10000F931F93CF93DF93182F092FEB018B8115
:102C200081FD03C08FEF9FEF20C082FF10C04E8157
:102C30005F812C813D81421753077CF4E881F98143
:102C40009F012F5F3F4F39832883108306C0E8859B
:102C5000F985812F0995892B29F72E813F812F5FD7
:102C60003F4F3F832E83812F902FDF91CF911F9174
:102C70000F910895FA01AA27283051F1203181F1EE
:102C8000E8946F936E7F6E5F7F4F8F4F9F4FAF4F74
:102C9000B1E03ED0B4E03CD0670F781F891F9A1F87
:102CA000A11D680F791F8A1F911DA11D6A0F711D3B
:102CB000811D911DA11D20D009F468943F912AE047
:102CC000269F11243019305D3193DEF6CF0108952F
:102CD000462F4770405D4193B3E00FD0C9F7F6CF60
:102CE000462F4F70405D4A3318F0495D31FD405228
:102CF000419302D0A9F7EACFB4E0A69597958795BE
:102D000077956795BA95C9F700976105710508959C
:102D10009B01AC010A2E0694579547953795279548
:102D2000BA95C9F7620F731F841F951FA01D0895E0
:102D30002F923F924F925F926F927F928F929F92CB
:102D4000AF92BF92CF92DF92EF92FF920F931F93B9
:102D5000CF93DF93CDB7DEB7CA1BDB0B0FB6F8946A
:102D6000DEBF0FBECDBF09942A88398848885F84AA
:102D70006E847D848C849B84AA84B984C884DF801B
:102D8000EE80FD800C811B81AA81B981CE0FD11DFF
:102D90000FB6F894DEBF0FBECDBFED010895F894D5
:022DA000FFCF63
:102DA2002E70005000540056007600546900746979
:102DB200006D004D0049004400202D496E697420C9
:102DC20020454550524F4D2D200025733B25733B26
:102DD200256400202020202532643A253032643ACE
:102DE200253032642020202000202020202D2D009C
:102DF20020202020202020202020202020202020D1
:102E0200002573202534732025347320253364254F
:102E120025002532643A2020002532643A253032DA
:102E2200640025733A2532642025347320202573EB
:102E32000025733A25642025733A253364202573CF
:102E42003A2532640020253473202534732025343A
:102E5200732000202020202573202020202573208D
:102E6200202020257320002D2D205570677261646B
:102E720065204657202D2D005072657373203C4506
:102E82004E543E2062757474002D2D2D2D2D2D2D46
:0A2E92002D2D2D2D2D2D2D2D2D00A1
:00000001FF
