:100000000C942A000C9447000C9447000C94DA09D5
:100010000C9447000C9447000C942E0A0C94470053
:100020000C9447000C9447000C9447000C94470034
:100030000C9447000C94B7090C9447000C944700AB
:100040000C9447000C9447000C9447000C94470014
:100050000C94470011241FBECFE5D4E0DEBFCDBF16
:1000600011E0A0E6B0E0EAE4FCE202C005900D92E7
:10007000A235B107D9F722E0A2E5B1E001C01D9297
:10008000A430B207E1F70E944E0A0C9423160C9498
:100090000000CF93DF9300D000D0CDB7DEB74C8304
:1000A0005B836A8389830E948B0589810E94A305F3
:1000B0006A81862F0E94A3055B81852F0E94A3057C
:1000C0004C81842F0E94A3050F900F900F900F90EA
:1000D000DF91CF910C9497051F93CF93DF931F92DD
:1000E000CDB7DEB7182F0E948B05812F0E94A30584
:1000F00080E00E94A3050E9497050E948B05812F36
:1001000081600E94A30581E00E94C505182F80E050
:100110000E94C50589830E949705898190E0912BF3
:100120000F90DF91CF911F910895CF93DF931F928E
:10013000CDB7DEB789830E947F0589818093550101
:100140001092540110925301109252010F90DF91BE
:10015000CF91089590935301809352010895843074
:1001600068F54091520150915301823051F0833033
:1001700059F0813019F04368516408C043685165F3
:1001800005C04368516602C043685167506861E02A
:10019000809155010E9449008FE79EE30197F1F796
:1001A00000C00000809155010E946C000090540135
:1001B00002C0969587950A94E2F7089580E090E052
:1001C000089540915201509153014368516861E094
:1001D000809155010E9449008FE79EE30197F1F756
:1001E00000C00000809155010E946C0020915401D4
:1001F000022E02C0969587950A94E2F7222329F0F1
:10020000811528E0920708F0906F089540915201FF
:10021000509153014368516B61E0809155010E94F8
:1002200049008FE79EE30197F1F700C0000080913D
:1002300055010E946C0020915401022E02C0969537
:1002400087950A94E2F7222329F0811528E0920786
:1002500008F0906F0895CF93DF93C0915201D09131
:100260005301813051F030F0823051F0833059F039
:10027000C4680BC0C468D06408C0C468D06505C039
:10028000C468D06602C0C468D067AB010090540156
:1002900002C0440F551F0A94E2F763E080915501B4
:1002A0000E944900AE0161E080915501DF91CF913C
:1002B0000C9449008FE79EE30197F1F700C000001E
:1002C000809155010E946C0020915401022E02C0C1
:1002D000969587950A94E2F7222329F0811528E064
:1002E000920708F0906F089520915601223078F41B
:1002F00090915801E92FF0E0E75AFE4F80832F5F7D
:100300002093560181E0890F8170809358010895F0
:10031000EF92FF920F931F93CF93DF9300D0CDB74F
:10032000DEB72FEF260F30E0A901455A5E4F7A0164
:10033000FA014081F901E15AFE4F908190935E01EC
:100340008901000F111FD801AC59BE4F2D913C916E
:1003500030936301209362018823E1F0253F51E04F
:100360003507C8F52F5F3F4F30936301209362013B
:100370002630310580F140FD03C0416091E001C0AD
:1003800090E0253F314041F541FD26C04B7F426062
:1003900092E022C040FF0AC041FD08C042FF03C0F6
:1003A0004B7F95E004C010925E01446090E042FFF4
:1003B00008C080915E01833320F010925E014B7F74
:1003C00093E040FF02C041FD94E01092630110925F
:1003D00062014C7F01C090E042FF07C080915E0146
:1003E000833318F48F5F80935E0180915E01808378
:1003F000992351F0862F4A8399830E947401998131
:10040000892F0E9474014A81F801EC59FE4F8091B6
:1004100062019091630191838083F70140830F9083
:100420000F90DF91CF911F910F91FF90EF90089562
:1004300020915601222379F090915701E92FF0E0A5
:10044000E75AFE4F80812150209356019F5F9170A3
:1004500090935701089580E00895109265011092DD
:10046000640110925B0110925F011092670110927B
:10047000660110925C011092600110926901109265
:10048000680110925D011092610110925901109261
:100490005A01109258011092570110925601D798A4
:1004A000DF9AA798AF9AA698AE9A089589B38095D7
:1004B00061E0881F8827881F0E94880183B3809588
:1004C00062E0881F8827881F0E94880183B386FB0B
:1004D000882780F963E091E089270C9488014F9286
:1004E0005F926F927F928F929F92AF92BF92CF92C4
:1004F000DF92EF92FF920F931F93CF93DF93CDB7CD
:10050000DEB72A970FB6F894DEBF0FBECDBF5C01F1
:100510006A017B01822ECE010B96FE013196D50138
:100520001D921192E817F907D9F720E030E0A901F0
:10053000C701B6010E946211882309F47CC080E0E3
:1005400090E061E070E0912C2AE08815990544F470
:10055000AB01249FB001259F700D11240196F5CFAA
:1005600026013701E89477F880E090E00E94FF11BF
:100570009B01AC01C301B2010E94B5120E94CE11D1
:10058000FE01319600E010E02AE030E0CB01B90135
:100590000E945E10805D8193161617062CF40F5F83
:1005A0001F4F0A30110591F720E030E040E85FE38B
:1005B000C301B2010E94621187FF0AC00F5F1F4F83
:1005C000E1E0F0E0EC0FFD1FE00FF11F80E380831E
:1005D00020E030E0A901C701B6010E94621187FF47
:1005E0000AC00F5F1F4FE1E0F0E0EC0FFD1FE00FCE
:1005F000F11F8DE2808340916000F50180E090E082
:100600009801281939092F5F3F4F8217930711F47A
:1006100040830BC0A1E0B0E0AC0FBD1FA00FB11F25
:100620005C9150830150110920F1019631968B3075
:10063000910559F71EC0882051F02091600080E09C
:1006400090E0912CEFEF8E1A9E0A30E30AC080E30F
:10065000F50180830EC0F5018130910531F42183CD
:10066000019688169906BCF704C0E80FF91F30837D
:10067000F7CF2A960FB6F894DEBF0FBECDBFDF913D
:10068000CF911F910F91FF90EF90DF90CF90BF908F
:10069000AF909F908F907F906F905F904F90089554
:1006A0000F93009360000E946F028EE280936000BF
:1006B0000F9108954F925F926F927F92AF92BF9287
:1006C000CF92DF92EF92FF920F931F93CF93DF931E
:1006D000CDB7DEB729013A01621B730B840B950B72
:1006E00029893A894B895C892A193B094C095D099A
:1006F000298B3A8B4B8B5C8B9B01AC0169897A8986
:100700008B899C890E942E10E418F50806091709A8
:10071000A80197010E9472102A0D3B1D4C1D5D1D02
:10072000CA01B901DF91CF911F910F91FF90EF9016
:10073000DF90CF90BF90AF907F906F905F904F9081
:1007400008954F925F926F927F92AF92BF92CF9235
:10075000DF92EF92FF920F931F93CF93DF93CDB76A
:10076000DEB728970FB6F894DEBF0FBECDBF2901C4
:100770003A01ED82FE820F8318870E94FD10698383
:100780007A838B839C83A6019501698D7A8D8B8DED
:100790009C8D0E94FD109B01AC0169817A818B8147
:1007A0009C810E94B51269837A838B839C83A30109
:1007B0009201C801B7010E94FD109B01AC01698143
:1007C0007A818B819C810E946611A60195010E940D
:1007D000FE1028960FB6F894DEBF0FBECDBFDF9196
:1007E000CF911F910F91FF90EF90DF90CF90BF902E
:1007F000AF907F906F905F904F900895EF92FF922F
:100800000F931F93621773078407950744F0E6164A
:10081000F706080719072CF4C801B70102C0CA017E
:10082000B9011F910F91FF90EF9008958F929F92C1
:10083000AF92BF92CF92DF92EF92FF920F931F93EE
:10084000CF93DF936B01D82FC92F49015A010E9422
:10085000621187FD0DC09701A801B6018D2F9C2F55
:100860000E94B11218163CF46701D02FC12F03C0AB
:100870006401DA2DCB2DB6018D2F9C2FDF91CF9106
:100880001F910F91FF90EF90DF90CF90BF90AF90AE
:100890009F908F900895982F92959F708F702AE067
:1008A000929F800D112408956AE00E943E1020E17D
:1008B000829F900D1124892F08951F93CF93DF936A
:1008C0001F92CDB7DEB7182F0E948B0580ED0E94D6
:1008D000A305812F0E94A3050E948B0581ED0E9434
:1008E000A30580E00E94C50589830E949705898140
:1008F0000F90DF91CF911F9108951F93CF93DF93B6
:100900001F92CDB7DEB7182F69830E948B0580ED4B
:100910000E94A305812F0E94A3056981862F0E9452
:10092000A3050F90DF91CF911F910C949705CF9362
:10093000C82FC3706111C0614111C0680E948B054E
:1009400080ED0E94A30587E00E94A3058C2F0E94E2
:10095000A305CF910C949705EF92FF920F931F93ED
:10096000CF93DF93EC017B018A010E948B0580ED20
:100970000E94A30580E00E94A3050E948B0581EDE3
:100980000E94A30581E00E94C5050E944B04F80166
:10099000808381E00E94C5050E944B04F70180839B
:1009A00080E00E94C5050E944B048883DF91CF91AF
:1009B0001F910F91FF90EF900C9497051F93CF9389
:1009C000DF9300D0CDB7DEB7182F49836A830E942A
:1009D0008B0580ED0E94A30580E00E94A30549815C
:1009E000842F0E9454040E94A3056A81862F0E94CE
:1009F00054040E94A305812F0E9454040E94A30561
:100A00000F900F90DF91CF911F910C949705EF926B
:100A1000FF920F931F93CF93DF93EC017B018A0129
:100A20000E948B0580ED0E94A30584E00E94A3052F
:100A30000E948B0581ED0E94A30581E00E94C505FF
:100A40000E944B04888381E00E94C5050E944B04EC
:100A5000F701808380E00E94C5050E944B04F801E5
:100A60008083DF91CF911F910F91FF90EF900C94B5
:100A700097051F93CF93DF9300D0CDB7DEB7182F24
:100A80004A8369830E948B0580ED0E94A30584E060
:100A90000E94A305812F0E9454040E94A30569812E
:100AA000862F0E9454040E94A3054A81842F0E942D
:100AB00054040E94A3050F900F90DF91CF911F91D6
:100AC0000C94970500000000000000000000019752
:100AD0000097C1F70895939A81E090E00C94620525
:100AE0008C9A81E090E00C9462058C9881E090E013
:100AF0000C946205939881E090E00C9462059498C0
:100B00009398939894988B9A8C980E946B050E9466
:100B100070050C9475050E946B050E9475050E9476
:100B20006B050E9470050E947A050C9475050E9461
:100B30007A050E9470050E946B050E9470050E9454
:100B40006B050C947505CF93DF93D82FC8E00E94F6
:100B50007A05D7FF03C00E94750502C00E94700588
:100B60000E946B05DD0FC15091F70E947A050E942B
:100B700075050E946B05C0B30E947A05C295C170CD
:100B800081E08C27DF91CF9108951F93CF93DF935E
:100B9000182F0E947A050E947505D8E0C0E0CC0F9E
:100BA0000E946B058499CF5F0E947A05D150B9F7F6
:100BB00011110E9470050E946B050E947A058C2F0E
:100BC000DF91CF911F9108951F93CF93DF931F92D1
:100BD000CDB7DEB7182F69830E948B05812F0E9445
:100BE000A3056981862F0E94A3050E948B05812F92
:100BF00081600E94A30580E00E94C50589830E9450
:100C0000970589810F90DF91CF911F910895CF9320
:100C1000DF9300D01F92CDB7DEB74B836A83898301
:100C20000E948B0589810E94A3056A81862F0E94FC
:100C3000A3054B81842F0E94A3050F900F900F9066
:100C4000DF91CF910C949705982F907F84FF02C07D
:100C5000DB9A01C0DB9885FF02C0DC9A01C0DC98FA
:100C600086FF02C0DD9A01C0DD9897FF02C0DE9AC0
:100C700001C0DE98DA9A95E09A95F1F70000DA98CB
:100C80008295982F907F84FF02C0DB9A01C0DB9889
:100C900085FF02C0DC9A01C0DC9886FF02C0DD9AA5
:100CA00001C0DD9897FF02C0DE9A01C0DE98DA9A93
:100CB00085E08A95F1F70000DA980895D398D498E2
:100CC000D598D698DB9ADC9ADD9ADE9AD99AD8988C
:100CD000DA9A95E09A95F1F70000CB9B02C080610B
:100CE00001C08F7ECC9B02C0806201C08F7DCD9BF6
:100CF00002C0806401C08F7BCE9B02C0806801C0AF
:100D00008F77DA98DA9A95E09A95F1F7000099B31F
:100D100099B399B399B3DA9887FDDACFD998D39A72
:100D2000D49AD59AD69A08959AE69A95F1F700C082
:100D3000D898982F907F84FF02C0DB9A01C0DB987F
:100D400085FF02C0DC9A01C0DC9886FF02C0DD9AF4
:100D500001C0DD9897FF02C0DE9A01C0DE98DA9AE2
:100D600085E08A95F1F70000DA980895CF93DF9334
:100D70001F92CDB7DEB789830E945E06D89889811D
:100D80000F90DF91CF910C942406CF93DF931F92A5
:100D9000CDB7DEB789830E945E06D89A89810F900D
:100DA000DF91CF910C942406D39AD49AD59AD69AEF
:100DB000D09AD19AD29A2FEF89EF90E021508040BB
:100DC0009040E1F700C0000080E30E9494068FE1AC
:100DD0009EE40197F1F700C0000080E30E949406B2
:100DE0008FE99FE00197F1F700C0000080E30E94C7
:100DF000940688E20E94940688E20E94B6068CE07F
:100E00000E94B60681E00E94B6068FE99FE0019736
:100E1000F1F700C0000086E00C94B606CF93DF9394
:100E2000EC018991882319F00E94C506FACFDF9161
:100E3000CF910895CF93DF93EC018881882331F01F
:100E4000FE01849121960E94C506F7CFDF91CF91D4
:100E500008950F931F93CF93DF93EC01677028E001
:100E6000629FC001112480640E94B6068E01085F53
:100E70001F4FFE01849121960E94C506C017D1071D
:100E8000C1F7DF91CF911F910F910895853610F42E
:100E900080937D0180917D010895AF92BF92CF92A2
:100EA000DF92EF92FF920F931F93CF93DF93D82F90
:100EB000C92FA0917201B0917301282F990F990B3E
:100EC0003C2F492F592F692F792F892FA09074011A
:100ED000B0907501C0907601D0907701E0907801D4
:100EE000F090790100917A0110917B010E94BA1073
:100EF000FD01EE0FFF1FEE52FE4FB180A0801B2DB3
:100F0000110F110BC12ED12EE12EF12E012F0E94B7
:100F1000C310209374013093750140937601509370
:100F20007701609378017093790180937A019093AF
:100F30007B011196B0937301A0937201D083C1839A
:100F4000509721F4109273011092720104E00E94F4
:100F50009C10C901DF91CF911F910F91FF90EF90ED
:100F6000DF90CF90BF90AF900895F8944FE250E09B
:100F700060E070E083EA91E00E942515789408957E
:100F80008AE08093A3012FE530E03093A9012093FC
:100F9000A80180EE91E09093AB018093AA018EE1CD
:100FA00090E09093AD018093AC0142E350E0509308
:100FB000AF014093AE013093BB012093BA0121E011
:100FC00030E03093B1012093B00120EC33E0309356
:100FD000BD012093BC012AE030E03093B30120939F
:100FE000B2019093BF018093BE011092B50110929F
:100FF000B40187E190E09093C1018093C001109209
:10100000B7011092B6018BE390E09093C3018093F7
:10101000C2011092B9011092B8019093C50180935A
:10102000C40181E490E09093A5018093A40188E03D
:1010300097E09093A7018093A60180E090E0A0E262
:10104000B1E48093C6019093C701A093C801B09307
:10105000C90180E090E0A0E0BFE38093CA019093D3
:10106000CB01A093CC01B093CD0180E090E0A0E053
:10107000B0E48093CE019093CF01A093D001B093C0
:10108000D1010C94B5070E94180280939201882325
:1010900021F00E9418028093F2010895B99AC19834
:1010A0008E9A96988D9A9598A09AA89808958F925E
:1010B0009F92AF92BF92CF92DF92EF92FF92CF9327
:1010C000DF934B015C01EA01622F70E080E090E069
:1010D0000E94FF1120E030E040E551E40E94FE1044
:1010E0002FE23DED44E95FE30E94B5126B017C0104
:1010F0006091A8017091A90180E090E00E94FF1129
:10110000A50194010E94FD109B01AC01C701B6012D
:101110000E94B5126B017C01BE0180E090E00E944C
:10112000FF1120E030E040E752E40E94661128E41D
:1011300031EE4AE75FE30E94B5129B01AC01C701A3
:10114000B6010E94661120E030E84BE355E40E94AE
:10115000661120E030E048EC52E40E94B5120E9493
:10116000D311653671058105910520F064E670E0C4
:1011700080E090E0862FDF91CF91FF90EF90DF909D
:10118000CF90BF90AF909F908F9008951FBC84E048
:101190008EBD1DBC1CBC81E19AE79BBD8ABD19BCFC
:1011A00018BC17BC16BC089584E085BD12BC14BCE5
:1011B0008CE783BD08954F925F926F927F92AF92BA
:1011C000BF92CF92DF92EF92FF920F931F93CF9334
:1011D000DF93CDB7DEB728970FB6F894DEBF0FBE0A
:1011E000CDBF0E94FD1069837A838B839C839B0112
:1011F000AC01C801B7010E94B512E12CF12C08EC3A
:1012000012E420E030E048EC52EC0E9416046D83BA
:101210007E838F83988720E030E0A901C601B50165
:101220000E94B1121816ACF4A601950169817A8169
:101230008B819C810E94661120E030E0A9010E9410
:10124000FE1020E030E0A9010E9416042B013C01B1
:1012500003C0412C512C320120916E0130916F015D
:10126000409170015091710169817A818B819C81DB
:101270000E94FD109B01AC01698D7A8D8B8D9C8D38
:101280000E94B512E12CF12C08EC12E420E030E0D1
:1012900048EC52EC0E9416046B017C0189819A8112
:1012A000AB81BC8180936E0190936F01A09370011C
:1012B000B0937101A30192016D817E818F81988528
:1012C0000E94FE10A70196010E94FE100E94CE11FE
:1012D000882777FD8095982F14E6E12EF12C00E009
:1012E00010E020E030E0A9010E94FE03862F28963E
:1012F0000FB6F894DEBF0FBECDBFDF91CF911F9127
:101300000F91FF90EF90DF90CF90BF90AF907F90C4
:101310006F905F904F90089590BD89B988ED8AB91C
:1013200086E880BD08950F931F93CF93DF93EC0160
:1013300009900020E9F72197C81BD90B8E011127CE
:10134000A801BC0183E991E00E941813CE5FC0930D
:101350007C01F801ED56FE4F8DE080838AE08183A9
:1013600089E08CB9DF91CF911F910F9108951F9261
:101370000F920FB60F9211248F93EF93FF93E0918A
:101380006D0180917C01E81758F4F0E0ED56FE4FB6
:1013900080818CB980916D018F5F80936D0102C057
:1013A00010926D01FF91EF918F910F900FBE0F90F2
:1013B0001F9018951F920F920FB60F9211242F9322
:1013C0003F934F935F936F937F938F939F93AF93CD
:1013D000BF93EF93FF9314BCA89580916C018F5F2E
:1013E00080936C018A30A1F410926C0190917D0180
:1013F00080916B01891710F0C19801C0C19A80914A
:101400006B018F5F80936B01843611F410926B0136
:1014100080916A018F5F843619F080936A0107C05A
:1014200010926A018091F30181608093F30185B38A
:1014300091E0892785BB0E945602FF91EF91BF91F1
:10144000AF919F918F917F916F915F914F913F915C
:101450002F910F900FBE0F901F9018951F920F9213
:101460000FB60F9211248F939F931DBC1CBC8091CB
:101470007E0190917F01009729F0019790937F0161
:1014800080937E018091F30180628093F3019F91AC
:101490008F910F900FBE0F901F901895CF93DF93F1
:1014A000CDB7DEB72C970FB6F894DEBF0FBECDBF19
:1014B00080E90E94950080E096E00E94AA0083E304
:1014C00090E00E948C090E944E080E942D020E940A
:1014D000D4064FE250E060E070E083EA91E00E94C1
:1014E00015158091A3018F3F11F09F991DC080E8D1
:1014F0000E94B60689E790E00E940E079F9BFECFF0
:101500000E94C0072FEF34E38CE021503040804030
:10151000E1F700C0000081E00E94B606AFE9BFE03D
:101520001197F1F700C000000E94C6080E94D4087D
:1015300040E061E080E00E949704AE014D5F5F4FA4
:10154000BE016E5F7F4FCE0101960E94AC0480E920
:1015500089BFA8952EE088E190E00FB6F894A89591
:1015600081BD0FBE21BD7894BFEFBF8318861D8259
:10157000E1E0EC83FFEFFE83812C412C512C320102
:1015800044EF242E41E0342E0E9443088091F30161
:1015900081FB992490F882FB992790F9990E83FB9F
:1015A000992790F9990E84FF05C08F7E8093F301EF
:1015B0000E94B5078091F30180FF36C18E7F809332
:1015C000F30186FD0AC0AE014D5F5F4FBE016E5F45
:1015D0007F4FCE0101960E94AC048091F30181FF00
:1015E000A3C00091A4011091A5012D81213051F0DB
:1015F00060F0223009F5412C512C38EC632E31E497
:10160000732E1AC032E03D8311C0B801882777FDE0
:101610008095982F0E94011220E030E040E251E4D2
:101620000E946211181614F082E08D83412C512C17
:1016300020E2622E21E4722EA090CA01B090CB016C
:10164000C090CC01D090CD018091C6019091C7018E
:10165000A091C801B091C90189879A87AB87BC87DF
:10166000B801882777FD8095982F0E94011220915C
:10167000D1012F932091D0012F932091CF012F934F
:101680002091CE012F93E984FA840B851C85A30158
:1016900092010E94DB0880937D010F900F900F90C4
:1016A0000F90988591111BC06091A4017091A501C4
:1016B000882777FD8095982F0E94011220E030E066
:1016C00048EC51E40E946211181674F18091A60151
:1016D0009091A70190937F0180937E0103C0A8851C
:1016E000A13011F580917E0190917F01892BD1F479
:1016F00010927D0180917D0110927F0110927E01F8
:1017000081E00E94B606EFE9FFE03197F1F700C0F3
:1017100000008091F3018D7F80618093F301F1E0FF
:10172000F88702C021E028871091F30113FF3FC022
:101730003D81313021F030F03230F1F038C082E0BC
:101740008D8313C06091A8017091A90180E090E0A1
:101750000E94FF11A1E0AD8320E030E040E251E4BF
:101760000E94621118160CF41D82412C512C90E23B
:10177000692E91E4792E1BC06091A8017091A90196
:1017800080E090E00E94FF1120E030E048EC51E45E
:101790000E94621118162CF0177F1093F30110921B
:1017A0007D01412C512C88EC682E81E4782E8091AB
:1017B000F30185FF39C08F7D8093F301E4EFF1E001
:1017C0001192B2E0E430FB07D9F721E040E050E0AD
:1017D00060E271E480E891E00E946F0221E040E065
:1017E00050E068EC71E486E891E00E946F0280911D
:1017F0007D011F928F9386E891E09F938F9380E8FD
:1018000091E09F938F93AAE8B0E0BF93AF933F928C
:101810002F920E94211384EF91E00E9493090FB64A
:10182000F894DEBF0FBECDBF8091F30186FD1AC0D4
:10183000911018C0809192018330A1F48091F2013F
:10184000823081F43C813F5F3C83373011F481E08A
:101850008C8381E00E94B606AFE9BFE01197F1F7F3
:1018600000C000008091F30186FD1AC0911018C0DD
:10187000809192018130A1F48091F201823081F453
:10188000BC81B150BC83B11102C0E6E0EC8381E0C1
:101890000E94B6068FE99FE00197F1F700C00000B3
:1018A000109192011230E1F58091F201833061F5DF
:1018B0009C818091F301933049F09430D1F09230C3
:1018C000D1F482608093F301188611C08860809300
:1018D000F3014091AA015091AB012091AC0160E06D
:1018E00070E080E291E40E94570880937D011D82A0
:1018F00006C0846002C0897F877F8093F301809156
:10190000F30180618093F3018091F201853041F40D
:101910008091F30110927D01817F80618093F301BA
:10192000AC81A33009F46AC130F4A13071F0A23067
:1019300009F4CCC029CEBC81B53009F48CC208F4BE
:1019400036C2B63009F462C31FCE2B81822F99278D
:1019500087FD90959F932F932A81822F992787FD4A
:1019600090959F932F932981822F992787FD90959A
:101970009F932F9383E990E09F938F933F922F92B1
:101980000E94211380E80E94B60684EF91E00E9435
:101990000E070FB6F894DEBF0FBECDBF8091920147
:1019A000823071F58091F201823051F5FF81FF5F45
:1019B000FF838091F301F33094F4FF3F81F0806462
:1019C0008093F3018F2F880F8F0F8F70805C80685A
:1019D0000E94B60689EA90E00E940E0711C08F7B34
:1019E0008093F30180EC0E94B60680EB90E00E94A9
:1019F0000E074B816A8189810E94DE042FEF2F83BD
:101A00008091F30186FFC0CD80919201833079F5FA
:101A10008091F201833009F0B7CD3F81832F992760
:101A200087FD9095E1E0F0E0EC0FFD1FE80FF91F56
:101A300040814F5F40839C012D5F3F4F552747FDFD
:101A40005095DC01AA0FBB1FAB54BE4F1B968D9166
:101A50009C911C97841795070CF096CDD901AA0F7D
:101A6000BB1FAD55BE4F1B968C9180838DCD8130B1
:101A700009F08ACD8091F201833009F085CD8F8104
:101A8000A82FBB27A7FDB09541E050E04C0F5D1F8C
:101A90004A0F5B1FFA01208121502083332727FD45
:101AA0003095CD01880F991F87559E4FFC01838586
:101AB0009485281739070CF067CDAA0FBB1FAB54CC
:101AC000BE4F1B968C91DA018C935ECD91102CC089
:101AD000133099F48091F201833031F58091A401A3
:101AE0009091A50101969093A5018093A40187345C
:101AF0009105D4F086E490E013C01130A9F48091F0
:101B0000F201833089F48091A4019091A50101979D
:101B10009093A5018093A401889734F488E290E023
:101B20009093A5018093A40121E040E050E060E2A1
:101B300071E480E891E00E946F0221E040E050E013
:101B400068EC71E486E891E00E946F0220917D01CB
:101B50008091F30181FD03C081E690E002C083E63D
:101B600090E01F922F9306E811E01F930F9370E807
:101B7000C72E71E0D72EDF92CF929F938F93A1EC67
:101B8000B0E0BF93AF933F922F920E94211380E861
:101B90000E94B60684EF91E00E940E0780EC0E943E
:101BA000B60621E0B301A201C8010E946F02809134
:101BB0007E0190917F016CE370E00E944A109F9338
:101BC0008F937F936F9382ED90E09F938F931F93FA
:101BD0000F930E9421131F930F93DF92CF92809156
:101BE000A5018F938091A4018F938BED90E09F933B
:101BF0008F933F922F920E942113CFC021E040E0AB
:101C000050E060E271E480E891E00E946F0221E020
:101C100040E050E068EC71E486E891E00E946F02D9
:101C200020917D018091F30183FD03C08FE391E05A
:101C300002C085E690E01F922F9326E831E03F93A3
:101C40002F9320E831E03F932F939F938F93A1EC44
:101C5000B0E0BF93AF933F922F920E94211380E890
:101C60000E94B60684EF91E00E940E0780919201D7
:101C70000FB6F894DEBF0FBECDBF8230D1F4909185
:101C8000F2019230B1F4911014C03E813F5F3E8367
:101C90008091F301333014F43F3F39F48F7B80613E
:101CA0008093F3018FEF8E833DC080648093F301B6
:101CB00039C09E819F3FB1F1911034C08330E1F46F
:101CC0008091F201833071F5A92FBB27A7FDB09554
:101CD000FD01EE0FFF1FED55FE4F85819681AA0F86
:101CE000BB1FA155BE4F1B962D913C911C9782178F
:101CF0009307C0F4019614C08130A1F48091F201E1
:101D0000833081F4AE81EA2FEE0FFF0BED55FE4FCD
:101D100085819681238534852817390718F4019722
:101D200096838583A091AC01B091AD01EE81E23044
:101D300019F447E650E002C049E650E0E091AA01FC
:101D4000F091AB012E81213019F42BE630E002C076
:101D50002EE630E06091A8017091A9018E81811179
:101D600003C085E690E002C08FE391E0BF93AF939C
:101D70005F934F93FF93EF933F932F937F936F93D3
:101D80009F938F93A9EEB0E0BF93AF933F922F92B2
:101D90000E94211380EC0E94B60684EF91E00E941D
:101DA0000E070FB6F894DEBF0FBECDBFEDCB80910E
:101DB000F30182FF1DC0133061F48091F201833082
:101DC000B9F480917D01843698F480917D018F5F14
:101DD0000DC0113069F48091F201833049F4809193
:101DE0007D01882329F080917D01815080937D01C0
:101DF00021E040E050E060E271E480E891E00E9480
:101E00006F0221E040E050E068EC71E486E891E088
:101E10000E946F0220917D018091F30182FD03C039
:101E200081E790E002C083E790E01F922F9326E8BD
:101E300031E03F932F9320E831E03F932F939F931E
:101E40008F93A1ECB0E0BF93AF933F922F920E948B
:101E5000211380E8A0CF1230A9F48091F2018230E2
:101E600089F48091F3019DEF980D9D3F30F48F7BB5
:101E700080618093F301812C58C0839480648093A7
:101E8000F30153C0882009F450C0133029F5809124
:101E9000F201833009F049C034E0839E80011124AF
:101EA00001561E4FD8019396CD90DD90ED90FC9099
:101EB000969720E030E040EA51E4C701B6010E9465
:101EC000621187FF32C02DEC3CEC4CEC5DE3C701A6
:101ED000B6010E94FE1024C0113039F58091F20144
:101EE000833019F5F4E08F9E8001112401561E4FB6
:101EF000D8019396CD90DD90ED90FC90969720E0E0
:101F000030E0A901C701B6010E94B11218166CF4A5
:101F10002DEC3CEC4CEC5DE3C701B6010E94FD10DA
:101F2000F80163A374A385A396A34091C6015091C1
:101F3000C7016091C8017091C90121E080E891E07A
:101F40000E946F024091CA015091CB016091CC0177
:101F50007091CD0121E086E891E00E946F024091EE
:101F6000CE015091CF016091D0017091D10121E05B
:101F70008CE891E00E946F028CE891E09F938F9330
:101F800086E891E09F938F9380E891E09F938F93F1
:101F9000ADEFB0E0BF93AF933F922F920E94211319
:101FA00080E80E94B60684EF91E00E940E070FB60B
:101FB000F894DEBF0FBECDBF33E0831669F082E038
:101FC000881679F091E02CE630E041E950E0891282
:101FD0000CC083E690E00BC02CE630E047E750E011
:101FE00004C025E730E041E950E081E690E05F93EE
:101FF0004F933F932F939F938F93ABE0B1E0BF93A9
:10200000AF933F922F920E942113C4CE80E80E948A
:10201000B6068FE191E00E940E0780EC0E94B606A2
:1020200080E391E00E940E0780919201823009F0D6
:10203000ABCA8091F201823009F0A6CA80E80E9402
:10204000B6068FE191E00E940E0780EC0E94B60672
:1020500081E491E00E940E07F894FFCFDB018F939B
:102060009F930E949110BF91AF91A29F800D911DEF
:10207000A39F900DB29F900D11240895991B79E0B4
:1020800004C0991F961708F0961B881F7A95C9F708
:1020900080950895AA1BBB1B51E107C0AA1FBB1F57
:1020A000A617B70710F0A61BB70B881F991F5A95E4
:1020B000A9F780959095BC01CD01089597FB072E57
:1020C00016F4009407D077FD09D00E944A1007FC4F
:1020D00005D03EF4909581959F4F08957095619538
:1020E0007F4F0895052E97FB1EF400940E948910DF
:1020F00057FD07D00E94CC1007FC03D04EF40C947F
:10210000891050954095309521953F4F4F4F5F4F27
:10211000089590958095709561957F4F8F4F9F4F53
:1021200008950E94EE10A59F900DB49F900DA49F5E
:10213000800D911D1124089597FB10F81694000846
:102140000F93083098F00850232F342F452F562F27
:10215000672F782F892F902DF4CF05949795879529
:102160007795679557954795379527950A95AAF7D7
:102170000F9108952A0D3B1D4C1D5D1D6E1D7F1D89
:10218000801F911F08952A193B094C095D096E09AA
:102190007F09800B910B0895A1E21A2EAA1BBB1B8D
:1021A000FD010DC0AA1FBB1FEE1FFF1FA217B30723
:1021B000E407F50720F0A21BB30BE40BF50B661F39
:1021C000771F881F991F1A9469F7609570958095FD
:1021D00090959B01AC01BD01CF010895A29FB00174
:1021E000B39FC001A39F700D811D1124911DB29F4B
:1021F000700D811D1124911D08955058BB27AA27E9
:102200000ED075C166D130F06BD120F031F49F3F14
:1022100011F41EF45BC10EF4E095E7FB51C1E92F08
:1022200077D180F3BA17620773078407950718F010
:1022300071F49EF58FC10EF4E0950B2EBA2FA02DF0
:102240000B01B90190010C01CA01A0011124FF2763
:10225000591B99F0593F50F4503E68F11A16F0405E
:10226000A22F232F342F4427585FF3CF469537955D
:102270002795A795F0405395C9F77EF41F16BA0B22
:10228000620B730B840BBAF09150A1F0FF0FBB1FD0
:10229000661F771F881FC2F70EC0BA0F621F731F19
:1022A000841F48F4879577956795B795F7959E3F76
:1022B00008F0B3CF9395880F08F09927EE0F979504
:1022C00087950895D9D008F481E008950CD00FC106
:1022D00007D140F0FED030F021F45F3F19F0F0C09C
:1022E000511139C1F3C014D198F39923C9F355237F
:1022F000B1F3951B550BBB27AA27621773078407F9
:1023000038F09F5F5F4F220F331F441FAA1FA9F3AE
:1023100033D00E2E3AF0E0E830D091505040E695A0
:10232000001CCAF729D0FE2F27D0660F771F881F01
:10233000BB1F261737074807AB07B0E809F0BB0BF0
:10234000802DBF01FF2793585F4F2AF09E3F510514
:1023500068F0B6C000C15F3FECF3983EDCF38695B1
:1023600077956795B795F7959F5FC9F7880F911D8A
:102370009695879597F90895E1E0660F771F881F76
:10238000BB1F621773078407BA0720F0621B730B29
:10239000840BBA0BEE1F88F7E095089504D068947B
:1023A000B111D9C00895BCD088F09F5790F0B92FD3
:1023B0009927B751A0F0D1F0660F771F881F991F9A
:1023C0001AF0BA95C9F712C0B13081F0C3D0B1E0AC
:1023D0000895C0C0672F782F8827B85F39F0B93FBC
:1023E000CCF3869577956795B395D9F73EF490959C
:1023F0008095709561957F4F8F4F9F4F0895E8941A
:1024000009C097FB3EF490958095709561957F4F3C
:102410008F4F9F4F9923A9F0F92F96E9BB279395EA
:10242000F695879577956795B795F111F8CFFAF4FA
:10243000BB0F11F460FF1BC06F5F7F4F8F4F9F4F2B
:1024400016C0882311F096E911C0772321F09EE889
:10245000872F762F05C0662371F096E8862F70E0EF
:1024600060E02AF09A95660F771F881FDAF7880FC9
:102470009695879597F90895990F0008550FAA0B1F
:10248000E0E8FEEF16161706E807F907C0F0121687
:102490001306E407F50798F0621B730B840B950B8A
:1024A00039F40A2661F0232B242B252B21F40895DF
:1024B0000A2609F4A140A6958FEF811D811D08957C
:1024C00097F99F6780E870E060E008959FEF80ECE7
:1024D000089500240A94161617061806090608958A
:1024E00000240A9412161306140605060895092EF0
:1024F0000394000C11F4882352F0BB0F40F4BF2B5F
:1025000011F460FF04C06F5F7F4F8F4F9F4F08959E
:1025100057FD9058440F551F59F05F3F71F0479594
:10252000880F97FB991F61F09F3F79F08795089579
:10253000121613061406551FF2CF4695F1DF08C098
:10254000161617061806991FF1CF869571056105B5
:1025500008940895E894BB2766277727CB0197F95D
:1025600008958ADF08F48FEF08950BD0C0CFB1DF54
:1025700028F0B6DF18F0952309F0A2CFA7CF1124D9
:10258000EACFC6DFA0F3959FD1F3950F50E0551F1A
:10259000629FF001729FBB27F00DB11D639FAA27B8
:1025A000F00DB11DAA1F649F6627B00DA11D661F07
:1025B000829F2227B00DA11D621F739FB00DA11D28
:1025C000621F839FA00D611D221F749F3327A00DE2
:1025D000611D231F849F600D211D822F762F6A2F7E
:1025E00011249F5750408AF0E1F088234AF0EE0F03
:1025F000FF1FBB1F661F771F881F91505040A9F710
:102600009E3F510570F05CCFA6CF5F3FECF3983E44
:10261000DCF3869577956795B795F795E7959F5F76
:10262000C1F7FE2B880F911D9695879597F9089510
:10263000FB01DC0102C001900D9241505040D8F7DF
:102640000895AEE0B0E0E7E2F3E10C94FA150D89ED
:102650001E8986E08C831A8309838FEF9FE79E8310
:102660008D83AE01475E5F4F6F89788DCE010196F5
:102670000E944313EF81F885E00FF11F10822E9620
:10268000E4E00C941616ACE0B0E0E9E4F3E10C945D
:10269000EC157C016B018A01FC0117821682838193
:1026A00081FFBDC1CE0101964C01F7019381F60176
:1026B00093FD859193FF81916F01882309F4ABC14C
:1026C000853239F493FD859193FF81916F018532B5
:1026D00029F4B70190E00E945C15E7CF512C312C12
:1026E00020E02032A0F48B3269F030F4803259F0CF
:1026F000833269F420612CC08D3239F0803339F493
:10270000216026C02260246023C0286021C027FDEC
:1027100027C030ED380F3A3078F426FF06C0FAE0D3
:102720005F9E300D1124532E13C08AE0389E300D69
:102730001124332E20620CC08E3221F426FD6BC191
:10274000206406C08C3611F4206802C0883641F43B
:10275000F60193FD859193FF81916F018111C1CFA6
:10276000982F9F7D9554933028F40C5F1F4FFFE303
:10277000F9830DC0833631F0833771F0833509F06A
:102780005BC022C0F801808189830E5F1F4F442403
:102790004394512C540115C03801F2E06F0E711CA6
:1027A000F801A080B18026FF03C0652D70E002C053
:1027B0006FEF7FEFC5012C870E9451152C0183011B
:1027C0002C852F77222E17C03801F2E06F0E711C76
:1027D000F801A080B18026FF03C0652D70E002C023
:1027E0006FEF7FEFC5012C870E9446152C012C85C9
:1027F0002068222E830123FC1BC0832D90E0481605
:102800005906B0F4B70180E290E00E945C153A945A
:10281000F4CFF50127FC859127FE81915F01B70177
:1028200090E00E945C1531103A94F1E04F1A510883
:102830004114510471F7E5C0843611F0893639F539
:10284000F80127FF07C060817181828193810C5F4D
:102850001F4F08C060817181882777FD8095982F70
:102860000E5F1F4F2F76B22E97FF09C0909580956F
:10287000709561957F4F8F4F9F4F2068B22E2AE051
:1028800030E0A4010E948E15A82EA81844C08537F8
:1028900029F42F7EB22E2AE030E025C0F22FF97FF6
:1028A000BF2E8F36C1F018F4883579F0B4C0803768
:1028B00019F0883721F0AFC02F2F2061B22EB4FE5F
:1028C0000DC08B2D8460B82E09C024FF0AC09F2F35
:1028D0009660B92E06C028E030E005C020E130E067
:1028E00002C020E132E0F801B7FE07C060817181CB
:1028F000828193810C5F1F4F06C06081718180E0EF
:1029000090E00E5F1F4FA4010E948E15A82EA818FC
:10291000FB2DFF77BF2EB6FE0BC02B2D2E7FA514EF
:1029200050F4B4FE0AC0B2FC08C02B2D2E7E05C0A8
:102930007A2C2B2D03C07A2C01C0752C24FF0DC0DE
:10294000FE01EA0DF11D8081803311F4297E09C05A
:1029500022FF06C07394739404C0822F867809F016
:10296000739423FD13C020FF06C05A2C731418F46F
:10297000530C5718732C731468F4B70180E290E07D
:102980002C870E945C1573942C85F5CF731410F47A
:10299000371801C0312C24FF12C0B70180E390E04A
:1029A0002C870E945C152C8522FF17C021FF03C0D5
:1029B00088E590E002C088E790E0B7010CC0822F64
:1029C000867859F021FD02C080E201C08BE227FD2C
:1029D0008DE2B70190E00E945C15A51438F4B701B0
:1029E00080E390E00E945C155A94F7CFAA94F4011A
:1029F000EA0DF11D8081B70190E00E945C15A110E5
:102A0000F5CF332009F451CEB70180E290E00E9467
:102A10005C153A94F6CFF7018681978102C08FEF5B
:102A20009FEF2C96E2E10C940816DC01CB01FC012F
:102A3000E199FECF06C0FFBBEEBBE09A31960DB226
:102A40000D9241505040B8F70895DC01A40FB51F16
:102A50004150504048F0CB01840F951F2E910E94A9
:102A6000361541505040D0F70895262FE199FECFFA
:102A70009FBB8EBBE09A01970DB2021631F02DBBC1
:102A80000FB6F894E29AE19A0FBE0895FC01059002
:102A9000615070400110D8F7809590958E0F9F1F60
:102AA0000895FC016150704001900110D8F78095A5
:102AB00090958E0F9F1F08950F931F93CF93DF93D1
:102AC000182F092FEB018B8181FD03C08FEF9FEF42
:102AD00020C082FF10C04E815F812C813D81421752
:102AE00053077CF4E881F9819F012F5F3F4F3983C1
:102AF0002883108306C0E885F985812F0995892BE5
:102B000029F72E813F812F5F3F4F3F832E83812FF7
:102B1000902FDF91CF911F910F910895FA01AA276D
:102B2000283051F1203181F1E8946F936E7F6E5F10
:102B30007F4F8F4F9F4FAF4FB1E03ED0B4E03CD0BE
:102B4000670F781F891F9A1FA11D680F791F8A1FA1
:102B5000911DA11D6A0F711D811D911DA11D20D008
:102B600009F468943F912AE0269F11243019305DC2
:102B70003193DEF6CF010895462F4770405D4193B3
:102B8000B3E00FD0C9F7F6CF462F4F70405D4A3300
:102B900018F0495D31FD4052419302D0A9F7EACFC8
:102BA000B4E0A6959795879577956795BA95C9F7F7
:102BB00000976105710508959B01AC010A2E0694EA
:102BC0005795479537952795BA95C9F7620F731FA3
:102BD000841F951FA01D08952F923F924F925F92E0
:102BE0006F927F928F929F92AF92BF92CF92DF921D
:102BF000EF92FF920F931F93CF93DF93CDB7DEB782
:102C0000CA1BDB0B0FB6F894DEBF0FBECDBF099415
:102C10002A88398848885F846E847D848C849B846C
:102C2000AA84B984C884DF80EE80FD800C811B817A
:102C3000AA81B981CE0FD11D0FB6F894DEBF0FBEA9
:0A2C4000CDBFED010895F894FFCF19
:102C4A002E700050005400560076005469007469D2
:102C5A00006D004D0049004400202D496E69742022
:102C6A0020454550524F4D2D200025733B25733B7F
:102C7A00256400202020202532643A253032643A27
:102C8A00253032642020202000202020202D2D00F5
:102C9A00202020202020202020202020202020202A
:102CAA0000257320253473202534732025336425A9
:102CBA0025002532643A2530326400743A2532649C
:102CCA0020253473202025730025733A2564202596
:102CDA00733A2533642025733A253264002025345B
:102CEA0073202534732025347320002020202025CA
:102CFA007320202020257320202020257320002DDA
:102D0A002D2055706772616465204657202D2D006D
:102D1A005072657373203C454E543E20627574743C
:102D2A00002D2D2D2D2D2D2D2D2D2D2D2D2D2D2DF6
:022D3A002D006A
:00000001FF
